:020000040800F2
:1000000030A60020A1010008733A0008EB37000871
:10001000713A00088D1D00086544000800000000CA
:10002000000000000000000000000000A53B0008E8
:100030004D1E000800000000753A00082D3C000825
:10004000BB010008BB010008BB010008BB010008A0
:10005000BB010008BB010008BB010008BB01000890
:10006000BB010008BB010008BB010008BB01000880
:10007000BB010008BB010008BB010008BB01000870
:10008000BB010008BB010008BB010008BB01000860
:10009000BB010008BB010008BB010008BB01000850
:1000A000BB010008BB010008BB010008BB01000840
:1000B000BB010008BB010008BB010008BB01000830
:1000C000BB010008BB010008BB010008BB01000820
:1000D000BB010008BB010008BB010008594400082F
:1000E000BB010008BB010008BB010008BB01000800
:1000F000BB010008BB010008BB010008BB010008F0
:10010000BB010008BB010008BB010008BB010008DF
:10011000BB010008BB010008BB010008BB010008CF
:10012000911D0008BB0100089D1D0008BB010008CF
:10013000BB010008BB010008BB010008BB010008AF
:10014000BB010008BB010008BB010008BB0100089F
:10015000BB010008BB010008BB010008BB0100088F
:10016000BB010008BB010008BB010008BB0100087F
:10017000BB010008BB010008BB0100080000000033
:10018000BB010008BB010008DFF810D000F006FB3F
:1001900000480047B9510008AFF3008030A60020A6
:1001A0000648804706480047FEE7FEE7FEE7FEE711
:1001B000FEE7FEE7FEE7FEE7FEE7FEE7C53C0008D8
:1001C000890100082DE9F05F0546002092469B4614
:1001D00088460646814640241BE02846414647465D
:1001E000224600F009F953465A46C01A914110D3ED
:1001F00011461846224600F0F0F82D1A67EB010868
:100200004F4622460120002100F0E7F817EB0009D5
:100210004E41201EA4F10104DFDC484631462A4647
:100220004346BDE8F09FD2B201E000F8012B491E21
:10023000FBD270470022F6E710B513460A46044683
:100240001946FFF7F0FF204610BD421C10F8011BB5
:100250000029FBD1801A70472DE9FE4F81EA030483
:1002600004F0004421F0004100944FF0000B23F013
:10027000004350EA01045ED052EA03045BD0C3F3AA
:100280000A54C1F30A552C44A4F2F3340194A0FBA0
:100290000254C1F3130141F48011C3F3130343F477
:1002A000801301FB024400FB034E840A970A44EAD0
:1002B000815447EA8357A4FB076802958D0A05FB22
:1002C00007854FEA932C04FB0C542705029D4FEA47
:1002D000065847EA1637B5EB08056EEB070C870E94
:1002E000920E47EA811742EA8312A7FB0201B6EB9E
:1002F0000B0164EB00042B0D43EA0C335E1844EB56
:100300001C50DA465146E7FB0201C5F313044FEADD
:100310000B3343EA14534FEA0432019C43EA0603C9
:10032000A4F10C040294009CCDE900B400F0A1F803
:1003300003B0BDE8F08F00200146F9E70EB540F2AA
:10034000334102910021CDE900110A460B4600F02D
:1003500090F803B000BDC1F30A5210B5C1F3130108
:1003600040F2FF3341F480119A4201DA002010BDBF
:1003700040F233439A42A2F2334203DC524200F08D
:100380003BF810BD904010BD00F0004230F000403E
:100390000AD0C10D01F56071C0F3160042EA0151A7
:1003A000C20840071143704700200146704730B52E
:1003B0000B46014600202022012409E021FA02F523
:1003C0009D4205D303FA02F5491B04FA02F52844BD
:1003D000151EA2F10102F1DC30BD202A04DB203A17
:1003E00000FA02F1002070479140C2F1200320FA88
:1003F00003F3194390407047202A04DB203A21FA86
:1004000002F00021704721FA02F3D040C2F120022D
:10041000914008431946704710B541000CD0C0F315
:10042000C751962908DC7E2909DC06DB410204D08D
:1004300000F0004040F07E5010BD002010BDC1F122
:100440009604C4F1200100FA01F1E04000F0CAF97D
:10045000A04010BD10B5141E73F1000408DA401C52
:1004600041F1000192185B411A4301D120F00100D3
:1004700010BD2DE9F04D92469B4611B1B1FA81F2C3
:1004800002E0B0FA80F220329046FFF7A6FF044661
:100490000F4640EA0A0041EA0B0153465A46084318
:1004A00013D0114653EA010019D0C8F1400250465A
:1004B000FFF7A2FF05460E46504659464246FFF753
:1004C0008CFF084305D0012004E020463946BDE8F2
:1004D000F08D0020054346EAE0762C4337430A9826
:1004E0006305E40AA0EB08000022FD0A44EA475431
:1004F0000A3002D500200146E9E7010510196941DB
:10050000DDE9084500196941BDE8F04DA2E72DE994
:10051000FE4F804681EA0300C00F0C46009021F098
:10052000004123F00045B8EB0200A94105D2404646
:10053000214690461C460B46024623F000401043DD
:1005400047D0270DC7F30A00C3F30A510290401A9F
:10055000019040286BDAC3F3130040F4801B00982D
:10056000924620B10023D2EB030A63EB0B0B0198F8
:100570005946C0F140025046FFF72FFF06460D4690
:1005800050465946019A00F01BF910EB08006141F2
:10059000002487EA115284EAE7731A4340D0009A94
:1005A00062B3019A012A4FEA075215DC001B61EB86
:1005B00002014FF0004202EA0752CDE90042001C5E
:1005C00041F5801132462B46FFF753FF03B0BDE8DB
:1005D000F08F40462146F9E7001B61EB0201001C49
:1005E00041F5801300185B412018A2F5001747EB76
:1005F000030140EAD570B6196D4111E06D084FEA6C
:10060000360645EAC0754FEA0752001B61EB02014E
:10061000001C41F5801149084FEA30000019514192
:1006200032462B4603B0BDE8F04FFFF713BF0098EA
:10063000012240000023D0EB020263EBE07300983C
:1006400021464FEAE074B8EB000061EB0401E9E7F2
:1006500083F000435BE781F0004158E72DE9F04D5E
:1006600081EA030404F0004B21F0004514464FF0EA
:10067000000A23F0004150EA050220D054EA0102AA
:100680001DD0C5F30A570246C5F31303C1F3130087
:10069000C1F30A5640F4801543F48013A7EB060813
:1006A000101BD64608F2FD3873EB050002D308F1A3
:1006B000010801E092185B41B8F1000F03DA002055
:1006C0000146BDE8F08D00204FF4801106468446B7
:1006D0000EE0171B73EB050705D3121B63EB050335
:1006E00006434CEA010C49084FEA300092185B417E
:1006F00050EA0107EDD152EA030012D082EA040069
:1007000083EA0501084305D0101BAB4106D2012244
:10071000002306E000224FF0004302E06FF00102E8
:1007200053101AEB06004CEB085110EB0A0041EB9A
:100730000B01BDE8F04DFFF78DBEC1F30A52C1F3C6
:10074000130140F2FF3341F480119A4202DA002093
:100750000146704740F233439A42A2F2334202DC30
:100760005242FFF749BEFFF738BE000030B5041E05
:1007700071F1000404DB4FF00044404264EB0101DE
:10078000141E73F1000405DB1C464FF00043524277
:1007900063EB0403994208BF904230BD064C074DFD
:1007A00006E0E06840F0010394E807009847103441
:1007B000AC42F6D3FFF7ECFC542F0208742F02086A
:1007C000202A06DBCB17203A41FA02F043EAE07315
:1007D00006E041FA02F3D040C2F120029140084302
:1007E000194670470029A8BF7047401C490008BF40
:1007F00020F00100704710B4B0FA80FC00FA0CF051
:1008000050EA010404BF10BC704749B1CCF1200488
:1008100021FA04F411FA0CF118BF01212143084315
:10082000A3EB0C01CB1D4FEA00614FEA102042BF41
:10083000002010BC704700EBC35010440029A4BF37
:1008400010BC7047401C490008BF20F0010010BCDC
:1008500070470000F0B5F1B1002300BF02EB430C7C
:1008600032F813E0BCF802C02EF0030E2CF0030C9B
:1008700050F80E5050F80C6000EB0E0400EB0C0723
:1008800040F80E6040F80C507E68656802338B4279
:1008900066607D60E2D3F0BD2DE9F04104889846A2
:1008A00016460746012A0D460CD1E4B3281D214601
:1008B00090ED000A0139B1EE400A80ED000A00F126
:1008C0000800F5D1FF2C0CDDB4F5806F10DBB4F51A
:1008D000805F22D0B4F5006F11D0B4F5806F17D0CF
:1008E00021E03F2C10DC102C12D0202C07D01AE075
:1008F000B4F5807F03D0B4F5007F0ED013E0384606
:10090000294600F05FF90EE0402C06D0802C0AD179
:100910003846294600F08AF805E07A6828462146DC
:10092000012300F043FCB8F1000F04D0B989BA6884
:100930002846FFF78FFF012E1CD100EE104A002C35
:10094000B8EE400A08BFBDE8F081B7EE001A81EEAC
:10095000000A00BF95ED001A95ED012A20EE011A5C
:1009600022EE402A85ED001A85ED012A013C05F1B1
:100970000805EFD1BDE8F08100224260FF294FF069
:10098000FF0201800EDDB1F5806F16DB29D0B1F5D5
:10099000805F2BD0B1F5006F46D14AF2F073C0F6FC
:1009A000000336E03F2913DC102924D020293BD155
:1009B0004AF61003C0F600032BE0B1F5807F1FD08C
:1009C000B1F5007F30D14AF63003C0F6000320E0D5
:1009D00040291AD0802927D14AF2D073C0F60003EB
:1009E00017E04AF2C073C0F6000312E04AF6200393
:1009F000C0F600030DE04AF2E073C0F6000308E021
:100A00004AF60003C0F6000303E04AF64003C0F6CE
:100A10000003191D03F108020C331B8812680968D2
:100A20008381C0E90112002250B270472DE9F047DE
:100A30002DED028B03888046084601EB830AD8F827
:100A400004200021B1EBD30F4FEA530900F0AB8033
:100A5000D9080AEB890C00EB890E0027C4190AEBB0
:100A6000070594ED000A95ED003A94ED011A95ED15
:100A7000014A0EEB07030CEB070694ED022A95EDF5
:100A8000025A70EE035A93ED006AD6ED001AD6EDC5
:100A9000012AD6ED023AD6ED034AC4ED005A71EEB2
:100AA000045A93ED017AC4ED015A72EE055AD3ED62
:100AB000020AC4ED025AD4ED035AD5ED036A31EEB1
:100AC000441A35EEA68A36EE214AD3ED037A84ED38
:100AD000038A83ED004A37EE224A83ED014A30EE65
:100AE000A34A83ED024A37EEA44A83ED034AD319A1
:100AF00031EEC64A33EEE06AD3ED000AD3ED011AB7
:100B000030EE430A32EE452A32EEC75A60EE202A12
:100B100061EE213A21EE201A20EE210A31EE400A40
:100B200085ED010A24EE210A25EE211A25EE205A30
:100B300072EEA32A24EE204A30EE450AC5ED002AC3
:100B400086ED000A34EE010A86ED010A93ED020AF1
:100B500093ED031A35EEE63A22EE004A23EE015AEF
:100B600023EE003A22EE012A34EEE77A33EE422AEF
:100B700085ED032A26EE012A27EE011A27EE003A18
:100B800026EE000A34EE054A32EE432A30EE010A20
:100B9000013907F1100785ED024A86ED022A86ED3C
:100BA000030A7FF45BAF4946022300F0FFFAD8F84E
:100BB0000420504649460223BDEC028BBDE8F047B5
:100BC00000F0F4BA2DE9F04F81B02DED088B8EB016
:100BD00002880346500801EB800505EB800691ED85
:100BE000000A91ED011A96ED002A96ED013A049360
:100BF0005B6806EB800730EE024A30EE420A31EEC7
:100C0000032A31EE431A95ED013A95ED005A05930A
:100C1000930897ED017AD7ED000A029374EE452A06
:100C200072EE433A34EE054A32EE032A6FF00103C6
:100C300034EE204A32EE072A03EB920230EE036ACA
:100C400071EE451A30EE430A31EE051A81ED004A85
:100C50000A9181ED012A510836EE476A71EEA01A19
:100C600072EEE02A73EEC73A30EE070A31EE601AF0
:100C70000095019603970D91C10085ED006AC5EDC1
:100C8000011AC6ED002AC6ED013A87ED000A87ED8C
:100C9000011A0C9100EB40016FF007036FF003079E
:100CA0004FEA800E07EBC00B07EB800A03EB00193D
:100CB00003EB81028C000020002500210B9100BF76
:100CC0000A9E059B07900695089406EB04080C9C69
:100CD000311806EB040C06EB0E0491ED020A9CEDB4
:100CE000022AD4ED020A30EE026AD8ED022A36EE6C
:100CF000204A34EE224A91ED031A9CED033AD4EDDA
:100D0000031AD8ED033A81ED024A94ED034A31EE1D
:100D1000037A98ED035A37EE044ACDF824E034EE16
:100D2000054A81ED034A0B9930EE420A31EE431A2F
:100D300030EE212A03EB010E32EE634A31EE602AD7
:100D40000D9932EE225A36EE602A37EE613A30EED5
:100D5000610A31EE201A1F18581932EE622A33EE5A
:100D6000633A30EE230A002931EE621A00F0CC809B
:100D70000A998E1801EB0A0301EB0905594493ED1A
:100D8000007AD6ED010AD1ED003A77EE202AD5EDB2
:100D9000014A72EEA35A75EEA45A13ED016AD6ED1C
:100DA000001A51ED016AD5ED007AC3ED005A11ED3C
:100DB000018A76EE215A95ED009A35EE888A38EE52
:100DC000098A03ED018A97ED028A97ED039A24EED2
:100DD00008AA25EE09BA25EE085A24EE094A35EE8E
:100DE000444A37EE605A84ED034A36EE614A35EEE6
:100DF000666A33EEE47A36EE276A74EE070A66EE28
:100E0000091A20EE899A60EE880A26EE086A3AEE00
:100E10000BAA71EEE00A36EE096A84ED02AAC1ED72
:100E2000000A01ED016A90ED046AD0ED050A62EE58
:100E3000061A23EE208A23EE063A22EE202A33EE0B
:100E4000422A8CED032A32EEE32A35EEE63A71EEC1
:100E5000881A33EE673A32EE642A0D98CCED021A06
:100E600062EE461A23EE066A23EE203A22EE202A8C
:100E700031EEC33A32EE462A013886ED013A86ED6C
:100E8000002A0D909EED062A9EED073A0C9820EE62
:100E9000026A61EE030A21EE021A20EE030A08300C
:100EA00031EE400A37EEE61ADDF824E00C9088EDCA
:100EB000030A37EE440A31EE451A0B9821EE034A35
:100EC00020EE033A20EE020A36EE206A21EE021AE4
:100ED00034EE400A183088ED026A85ED010A31EEE1
:100EE000030A089C0B9085ED000A069D07980EF1F9
:100EF000080E083410350830A9F10809083AABF19A
:100F0000080BAAF1080ADBE697ED026A97ED037A6F
:100F100064EE060A65EE071A25EE065A24EE074A25
:100F200030EEA16A35EE444A84ED026A84ED034A4C
:100F300090ED044A90ED055A22EE046A23EE057AFC
:100F400023EE043A22EE052A36EE074A33EE422A11
:100F50008CED024A8CED032A9EED062A9EED073A9F
:100F6000029D20EE024A21EE035A21EE021A20EEE3
:100F7000030A0A98059A34EE052A31EE400A2946FA
:100F8000042388ED022A88ED030A00F00FF9049C7F
:100F9000009862682946042300F008F96268019805
:100FA0002946042300F002F96268039829460423C5
:100FB0000EB0BDEC088B01B0BDE8F04F00F0F6B804
:100FC0002DE9F04381B02DED028B0C4600219046B7
:100FD000B1EB920F054674D04FEA980795ED000AE1
:100FE00095ED011A20EE000A21EE011A30EE018A79
:100FF000B0EE480A03F0B9FAB4EE400AF1EE10FA86
:1010000049D684ED000A95ED020A95ED031A20EE0B
:10101000000A21EE011A30EE018AB0EE480A03F010
:10102000A4FAB4EE400AF1EE10FA39D684ED010AC2
:1010300095ED040A95ED051A20EE000A21EE011A3D
:1010400030EE018AB0EE480A03F08FFAB4EE400A9F
:10105000F1EE10FA29D684ED020A95ED060A95ED17
:10106000071A20EE000A21EE011A30EE018AB0EED6
:10107000480A05F1200904F1100603F076FAB4EEEF
:10108000400AF1EE10FA15D684ED030A013F4D46F1
:101090003446A3D113E0B0EE480A03F066FAB0E795
:1010A000B0EE480A03F061FAC0E7B0EE480A03F078
:1010B0005CFAD0E7B0EE480A03F057FAE4E73446AA
:1010C0004D4618F0030620D095ED000A95ED011A63
:1010D00020EE000A21EE011A30EE018AB0EE480A35
:1010E000271D03F042FAB4EE400AF1EE10FA07D6DB
:1010F00084ED000A013E05F108053C46E4D104E018
:10110000B0EE480A03F031FAF2E7BDEC028B01B011
:10111000BDE8F0839FED221A9FED222A20EE010AFE
:10112000B5EE001A30EE010ABDEEC01A11EE100A3B
:10113000B5EE400AF1EE10FAB8BF013801EE100A20
:10114000B8EEC11A30EE410A20EE020ABDEEC01A16
:101150009FED152A11EE100A002130EE021AB1EBB4
:10116000502F4AF650011CBF0020B0EE410AC0F6D5
:10117000000101EE100A01EB8001B8EE411A30EED9
:10118000410A91ED001A91ED012AB7EE003A33EED3
:10119000403A23EE011A20EE020A31EE000A7047AF
:1011A00083F9223E00000044000000C42DE9F04F06
:1011B00081B02DED108BA0B0DFED04CA009004309B
:1011C000CDE902320190CDE91E1101E0F304353F73
:1011D0001F9A4FF0000AD308DF00A7EBD200C0002F
:1011E0001D904FEAC20C03EB430503EB8302580149
:1011F00006931E01019B2C014FEAC20EED00CDE9C2
:101200000C0ECDE90A5600BF0A9D191803EB05091B
:101210001D9D03EB0E0003EB070810ED014A864607
:101220009A19181903EB050B13ED011A11ED012A98
:1012300018ED013A12ED017A50ED010A59ED011A4B
:101240005BED012A31EE025A33EE046A77EE203A62
:1012500071EEA24A75EE235A76EE246A75EEA67AEE
:1012600043ED017A75EEE65AD8ED007A9EED008ADC
:1012700099ED00BA9BED00CAD3ED006A41ED015A29
:10128000D1ED005A92ED009A90ED00AA37EE88EA6F
:101290007BEE0C8A36EEA5DA39EE0AFA35EE635AA1
:1012A00036EE646A7EEE684A7DEE0F9A7DEE4F3A26
:1012B00035EE24DA35EE645A7EEE28AA02ED01DA24
:1012C00033EEC6DA00ED015A36EE235A31EE421AF9
:1012D00033EE442A37EE603A31EEE24A37EEC86A1E
:1012E0007BEE4C0A79EEAABA79EEEA9A72EE441ACB
:1012F00032EE042A36EE604A36EE206AC3ED00BABA
:10130000C1ED009A82ED00DA80ED005A36EEE55A22
:1013100039EE4A7A61EEAC1A22EE2C2A24EE2C4ADF
:1013200026EE2C6A71EE210A73EE022A75EE043A5B
:1013300077EE064A31EE611A33EE422A35EE443A30
:1013400037EE464A2646744670EEA45A70EEE40A1A
:1013500031EE045A1F9A1E9948ED015A73EEE25A73
:101360004BED010A72EEA30A204604ED015A33EE5A
:10137000425ADDF834E0C8ED005ACBED000A84EDA6
:10138000005A0C9831EE441A34460B9E924409EDF3
:10139000011A32EE031A8A45634489ED001AFFF4FC
:1013A00033AF1F984028C0F0D4810298009E80B2CD
:1013B00005900698CDE90E4CC0EBC000C00000249B
:1013C00001251097049000BF0598039B044403EB8C
:1013D000C40191ED000A03EB04128DED1D0A92ED9C
:1013E000000A04EB440203EBC2008DED1C0A90EDF1
:1013F000000A03EB44118DED1B0A91ED000A04EB8A
:101400008401C80003EBC1018DED1A0A91ED000AB9
:101410004FEAC20A4FEA021B03EB02128DED190AD2
:1014200092ED000AC4EBC4024FEAC40CD10003EBF6
:10143000C2028DED180A92ED000A0CF104024FEA87
:10144000041E1A448DED170A92ED000A0EF10402F3
:101450001A448DED160A92ED000A0AF104024FEAD1
:1014600044191A448DED150A92ED000A09F104029F
:101470001A448DED140A92ED000A043018448DEDE3
:10148000130A90ED000A0BF1040018448DED120AC6
:1014900090ED000A081D18440994D0ED006A0796E3
:1014A000B44608952B46DDE90C54DDE90A76DDF8F3
:1014B00010808DED110A00BF10980E990CEB0509F4
:1014C0000CEB000E0CEB04000CEB060B0CEB010A12
:1014D0000CEB07020CEB0801DCED027A99ED028AB5
:1014E0009EED029A90ED02AA9BED02DA9AED02EAD5
:1014F00092ED02FAD1ED028A37EE88BA39EE0ACAC5
:101500007DEE0E9A7FEE28AA7BEE29BAF0EE6C3AB9
:101510007CEE2ACA7BEEACDACCED02DA7BEEECBADA
:10152000DCED03CAD9ED03DADEED03EAD0ED03FA10
:101530009BED030A9AED031A92ED032A91ED033A0B
:101540003CEEAD4A3EEEAF5A30EE016A32EE037A1F
:1015500074EE060A75EE071ADDED1A4ADDED135A30
:1015600070EEA12A70EEE10ACCED032A64EEAB1A0C
:1015700065EEA02A71EEA21A64EEA00A65EEAB2A0F
:1015800070EEE20AC9ED021AC9ED030A7BEE690AA0
:101590007CEE6A1A34EE464A35EE475A9DED1CCA77
:1015A000DDED154A30EE856A34EE617A6CEE062A7E
:1015B00024EE87BA2CEE077A24EE866A30EEC55AFE
:1015C00031EE844ADDED180ADDED111A37EE466A78
:1015D0008BED036A20EE856A21EE847A20EE844A40
:1015E00021EE855A37EE066A34EE454A39EE4A5AFC
:1015F0003FEE687A7EEEEF1A30EE410A32EE431A81
:101600007BEE222A35EE472A35EE073A31EEC15AF3
:1016100031EE811ACBED022A8AED026A8AED034A85
:1016200037EEC84A3DEE4E6A7CEEED0A22EE232AE2
:1016300023EE233A25EE235A21EE231AF0EE63CA55
:1016400034EE027A76EE031A70EE852A70EE017A95
:10165000DDED1D3ADDED164A37EE278A32EEE19ACE
:1016600023EE88AA24EE89BA23EE899ADDED173A93
:1016700037EE677A71EEA21A63EE872A66EEA17AD8
:1016800063EEA11A26EE877A24EE888A31EEC77AB5
:1016900034EE422A36EE433A30EEC54A30EE410A85
:1016A000DDED190ADDED121A39EE488A32EE001A24
:1016B00034EE435A8EED038A81ED037A20EE816A7F
:1016C00021EE857A20EE855A21EE811A3AEE0BAA98
:1016D00072EEA72A36EE076A35EE411A8EED02AA9F
:1016E000C1ED022A80ED026A80ED031A1F9833EEE5
:1016F000041A03441E989DED1B4A9DED145A32EEC8
:10170000400A83420F9824EE002A25EE013A24EE87
:10171000011A25EE000A32EE032A31EE400A844413
:1017200082ED022A82ED030AFFF4C6AE089D0698F8
:10173000079E0135099C854206F10806FFF444AE78
:101740000298C00002901F983F2806981F903FF60D
:101750003FAD20B0BDEC108B01B0BDE8F08F10B5EF
:1017600078B14FF400710446FFF706F950B94FF411
:10177000806020824AF6D470C0F6010060610020CB
:1017800000E0FF2040B210BD10B568B14021044612
:10179000FFF7F2F848B9802020824BF6D470C0F6EB
:1017A00001006061002000E0FF2040B210BD10B5D4
:1017B00078B14FF480610446FFF7DEF850B94FF47A
:1017C000006020824CF2D410C0F60100606100205D
:1017D00000E0FF2040B210BD10B570B1802104467A
:1017E000FFF7CAF850B94FF4807020824EF2D4103F
:1017F000C0F601006061002000E0FF2040B210BD93
:1018000010B568B110210446FFF7B6F848B920209A
:1018100020824EF2D450C0F601006061002000E04A
:10182000FF2040B210BD10B578B14FF400610446FE
:10183000FFF7A2F850B94FF4805020824EF2546066
:10184000C0F601006061002000E0FF2040B210BD42
:1018500010B578B14FF480710446FFF78DF850B998
:101860004FF40070208242F25460C0F602006061C2
:10187000002000E0FF2040B210BD10B568B120216B
:101880000446FFF779F848B94020208242F65460B8
:10189000C0F602006061002000E0FF2040B210BDF1
:1018A000F0B581B014460E46054673B12846314660
:1018B00022461F4600F060F8284621463A4601239A
:1018C00001B0BDE8F040FEF7E7BF284631460022F0
:1018D0000123FEF7E1FF28463146224601B0BDE86C
:1018E000F04000F0A3B8B1F5007F0ADA7F2916DCDA
:1018F000202929D040293BD141F67B01C0F60001C7
:101900000847B1F5006F14DAB1F5007F21D0B1F5C9
:10191000806F2DD141F25F71C0F600010847802928
:101920001CD0B1F5807F23D141F2D971C0F60001FE
:101930000847B1F5805F16D0B1F5006F18D141F2BC
:10194000AF71C0F60001084741F60101C0F6000181
:10195000084741F65101C0F60001084741F289717C
:10196000C0F60001084741F62701C0F6000108470C
:101970004FF0FF307047000080B591ED001A91EDF7
:10198000012AD0F814E0008831EE023AB6EE000ADF
:1019900031EE421AB0F1010C23EE003A21EE001AAA
:1019A00082ED003A82ED011A08BF80BD01F1080303
:1019B00001EBCC010EF108000832043111ED011ADF
:1019C00091ED002A93ED003A93ED014A90ED005A13
:1019D00090ED016A33EE417A72EE040A67EE051A61
:1019E00060EE862A27EE066A31EE031A34EE422AAA
:1019F00025EE205A31EE611A32EE062A31EE621AD5
:101A000032EE452A21EE001A22EE002A82ED001A5B
:101A100082ED012ABCF1010C03F1080300F108007A
:101A200002F10802A1F10801C8D180BD91ED000AC0
:101A300091ED011A0388406930EE002A31EE011A57
:101A4000A3F1010C32EE013AB6EE000A32EE411A71
:101A500023EE003A21EE001A00F1080301F108001C
:101A600001EBCC0182ED003A82ED011A083204311B
:101A700011ED011A90ED003A91ED002A90ED014A26
:101A800093ED005A93ED016A31EE437A72EE040A47
:101A900067EE051A27EE067A31EE031A34EE422A73
:101AA00025EE205A20EE866A31EE211A32EE072A00
:101AB00031EE061A32EE452A21EE001A22EE002AF5
:101AC00082ED001A82ED012ABCF1010C03F108033A
:101AD00000F1080002F10802A1F10801C8D1704725
:101AE00010B50E4C00224021204600F0CDFF002210
:101AF0002021204600F0C8FF4FF40454204600F097
:101B000035F842F2380000F031F84FF4404000F070
:101B10002DF82046BDE8104000F028B80000024033
:101B20002DE9F04104460D46274610EE100AFEF757
:101B30002BFC9FED0C1B53EC112BFEF78DFBFEF7DE
:101B40000AFCC0F38D31C0F30D060C433E4328461A
:101B500000F00CF8304600F009F82046BDE8F041EE
:101B600000F004B8F8BA40D813A20C4070B5184D74
:101B70000646002401220421284600F085FF0022A9
:101B80000221284600F080FF300401D5012200E048
:101B900000220821284600F077FF00220421284671
:101BA00000F072FF760001220421284600F06CFF4D
:101BB000641CE4B2102CE7D301220821284600F06F
:101BC00063FF2846BDE870400122022100F05CBF9F
:101BD0000000024010B50146806B026C12F0500FFD
:101BE00005D0026CD20626D500F0E9FA10BD016CD2
:101BF00041F40071016401688A6812F0405F17D1F6
:101C0000027EAAB9CA6A12F4700F02D08A6852051D
:101C10000ED44A6822F020024A60016C21F48071DF
:101C20000164016CC90403D4016C41F00101016439
:101C300000F0B2FA10BD806BC26CBDE810400846DF
:101C4000104710B5806B40210164416C41F00401E4
:101C5000416400F0B4FA10BD10B5806B00F0AEFA2C
:101C600010BD0000464910B54A6822F440324A606F
:101C70004A6843681A434A6001684A6822F48072DD
:101C80004A6001684A68036942EA03224A600168BF
:101C90004A6822F040724A6001684A6883681A43C1
:101CA0004A6001688A6822F400628A6001688A6872
:101CB000C3681A438A60816A6FF07062D14201681A
:101CC0008A6822F070628A6001688A680CD0836A30
:101CD0001A438A6001688A6822F040528A6001686B
:101CE0008A68C36A1A4301E022F040528A600168A0
:101CF0008A6822F002028A6001688A68037E42EAEA
:101D000043028A6090F82010002901684A680FD0C9
:101D100042F400624A6001684A6822F460424A6004
:101D200001684A68174C436A04EB43331A4301E0E5
:101D300022F400624A600168CA6A22F47002CA6230
:101D40000168CA6A838B104C04EB03531A43CA62BE
:101D500001688A6822F400728A6001688A6890F8D3
:101D6000303042EA43228A6001688A6822F4806245
:101D70008A6001688A68406942EA8020886010BDF4
:101D80000023014000E0FFFF0000F0FFFEE700003D
:101D9000014800F0FDBB0000E0A00020014800F079
:101DA000F7BB000040A1002001681823CAB2103A16
:101DB000B2FBF3F2054B6FF30901032A9B5CC36589
:101DC00000D9091D8165084670470000C852000807
:101DD00010B5014600208B698A6A4FF0C07453B178
:101DE000B3F5005F15D072B1012A0CD0022A0AD0D7
:101DF000032A09D104E01AB1012A06D0022A03D12C
:101E0000C96AC90100D5012010BDC96AA142FAD032
:101E100010BD002AF7D0012AF2D0022AF3D0032AFB
:101E2000F3D010BD30B50468256825F48025256001
:101E3000046863608368402B036803D0996000687E
:101E4000C26030BD9A600068C16030BD704700005C
:101E50002DE9F04F4F4C94ED000ADFED4F2A4F482B
:101E6000C0EE220ABCEEE00A10EE101A01EB4102AD
:101E700001EB81054B0000EB8101D1ED001ADFED94
:101E8000480A4FF480618A42B0EE600AB0EE401A10
:101E9000B0EE402A05D200EB820292ED003A83EECA
:101EA000211A8D4205D200EB850292ED003A83EEB5
:101EB000210A8B465B4505D200EB830191ED003A88
:101EC00083EE212A11EE101A364F324BCA19DFF871
:101ED000D8C0DFF8D880093B35494FF001094FF0F1
:101EE000000A62450ED210EE102A8A420ADD10EE78
:101EF000102A424506DA12EE102A8A4202DA83F8E4
:101F0000009001E083F800A094ED010AF0EE601A61
:101F100080EE221AF0EE602ABCEEC10A10EE102A02
:101F200002EB420602EB8205540000EB82025E45A2
:101F300092ED000A05D200EB860292ED001AC1EE86
:101F4000002A5D4505D200EB850595ED001AC1EE2E
:101F5000000A5C4505D200EB840090ED001AC1EE4A
:101F6000001A12EE900A384460450FD210EE900A23
:101F700088420BDD10EE900A404507DA11EE900A18
:101F8000884203DA83F80190BDE8F08F83F801A05E
:101F9000FAE700000C000020002474455090002057
:101FA00000000000F5285CC28FC275008FC2753D2D
:101FB0008FC2F53C72B6FEE710B52DED028BB0EE88
:101FC000608AF0EE400A80EE880A02F081FABDEEE7
:101FD000C00A10EE100A012800DA012000EE100AF3
:101FE000B8EEC00A20EE080ABDEC028B10BD00005E
:101FF00070B5154D00242DED048BF7EE009AF6EE2A
:10200000008A9FED0F8A9FED0F9A4FF4006600BF84
:1020100000EE104AB8EEC00A60EE080A80EE890AA7
:10202000FFF778F839EEC00A05EB8400641CB4426F
:1020300020EE280A80ED000AEADBBDEC048B70BDBF
:10204000DB0FC94000E0FF445070002078B5002449
:10205000009490F83C20012A19D0012280F83C20FD
:102060000A6807230568092A13D9EE680A3A02EBC1
:10207000420293409E43EE600B788A680A3B03EB72
:1020800043039A400368DD682A43DA6010E00220C7
:1020900078BD2E6902EB420293409E432E610B787D
:1020A0008A6803EB43039A4003681D692A431A6157
:1020B0004A681F23072A13D205686E6B521E02EB73
:1020C000820293409E436E630B790A885B1E92B234
:1020D00003EB83039A4003685D6B2A435A6327E04E
:1020E00005680D2A12D22E6BD21F02EB820293409A
:1020F0009E432E630B790A88DB1F92B203EB8303A6
:102100009A4003681D6B2A431A6311E0EE6A0D3A88
:1021100002EB820293409E43EE620B790A880D3BEC
:1021200092B203EB83039A400368DD6A2A43DA62C2
:10213000164B0568144A9D4206D10D68122D03D135
:10214000556845F48005556005689D4218D10B68B7
:10215000102B01D0112B13D1536843F400035360AB
:10216000096810290CD10A490A4A0968B1FBF2F141
:1021700001EB8101490000E0491E00910029FBD1DB
:1021800080F83C40002078BD002301400020014041
:102190002800002040420F0000680549884205D110
:1021A000044901200870044800F060B9704700003D
:1021B000002001400000002050A000207047704720
:1021C00070B504004FF0000503D0206C002610B15C
:1021D00007E0012070BD204600F01CF8666484F81A
:1021E0003C60206CC00610D4206C20F4885040F075
:1021F000020020642046FFF735FD6664206C20F065
:10220000020040F00100206400E0012584F83C60F9
:10221000284670BD2DE9F04F87B006461421684668
:10222000FEF708F83548344C143833680025334934
:10223000032207154FF400684FF400594FF4807AD9
:102240004FF4403BA34227D10B6843F480730B60EB
:10225000096801F480710591016841F00101016094
:102260000068694600F00100059080208DE8250097
:10227000234800F011FB244C224804F10C03C4E96C
:102280000005A56083E8A00F204665622DE0B463D9
:10229000A66307B0BDE8F08F1C4CA342F9D10B68D0
:1022A00043F400730B60096801F400710591016843
:1022B00041F0020101600068694600F002000590EB
:1022C00001208DE82500124800F0E6FA0E4C0D487A
:1022D0006034303020604FF00070C4E9010504F133
:1022E0000C03204683E8A00F656200F021FA002865
:1022F000CDD0FFF75FFECAE700200140443802401E
:102300000000024010640240E0A0002000210140D3
:1023100000040240F8B50E4600210446009190F8F2
:102320003C0013460A46012807D0012084F83C00EF
:1023300020688568ED0702D011E00220F8BD8568AD
:1023400045F0010585604048404D0068B0FBF5F060
:1023500000EB400000E0401E00900028FBD1206808
:102360008568ED0503D5856825F48075856020684E
:102370008568ED075DD0226C40F20165AA4342F406
:10238000807222644068400505D5206C20F400501E
:1023900040F480502064206CC00404D5606C20F0B0
:1023A0000600606400E0616484F83C10A16B294879
:1023B000274DC863A16B28480864A16B2748C864EF
:1023C00021686FF0220008602068416841F0806158
:1023D00041602068816841F48071816021683246E3
:1023E0004C31A06B00F00EFA024668681C49C0062A
:1023F000206806D0884224D1816811F0405F13D054
:102400001FE08842F8D0174B984203D1D1F804332B
:10241000DB06F1D0144B984213D1D1F8041301F02C
:102420001F011029E8D30CE0816841F080418160F0
:1024300007E0206C40F010002064606C40F0010068
:1024400060641046F8BD00002800002040420F00E4
:1024500000230140D51B0008591C0008431C00083C
:1024600000200140002101400022014010B5044637
:10247000002094F83C1001290CD0012184F83C1074
:1024800021688A6822F001028A6021688A68D2077E
:1024900002D01DE0022010BD8A6822F480728A609A
:1024A000A16B91F83520022A07D1084600F014F8F4
:1024B00018B1216C41F04001216421684A6822F082
:1024C00080624A60216C21F4885141F0010121644D
:1024D000002184F83C1010BD2DE9F0410446876DC1
:1024E00000F0D8FA064694F835000025022806D0F8
:1024F0008020606584F834500120BDE8F0812068B8
:10250000016821F0160101602068416921F0800115
:102510004161206C08B9A06C20B12068016821F0ED
:10252000080101602068016821F0010101600CE0F0
:1025300000F0B0FA801B052807D920206065032031
:1025400084F8350084F83450D7E720680068C00765
:10255000EED194F85C103F208840B860012084F8E8
:10256000350084F834500020C7E790F83510022970
:1025700003D08021416501207047052180F8351086
:102580000068016821F0010101600020704700002F
:102590002DE9F84304464FF00009CDF80090634858
:1025A0004FF41651A56D0068B0FBF1F72E6894F852
:1025B0005C10082000FA01F131420FD021680A684E
:1025C00052070BD50A6822F004020A6094F85C10E6
:1025D0008840A860606D40F00100606594F85C1070
:1025E0004FF0010808FA01F0304208D0216849692B
:1025F000090604D5A860606D40F00200606594F89B
:102600005C1004208840304208D02168096889079E
:1026100004D5A860606D40F00400606594F85C101B
:1026200010208840304218D021680968090714D565
:10263000A86020680168490304D50068000308D534
:10264000A16C07E00168C90503D4016821F0080105
:102650000160216C09B12046884794F85C10202065
:102660008840304231D021680968C9062DD5A8605C
:1026700094F8350005282068016806D0490347D53D
:10268000006800031DD4616C1CE021F0160101609C
:102690002068416921F080014161206C08B9A06C7B
:1026A00020B12068016821F00801016094F85C10F5
:1026B0003F208840A86084F8358084F83490216DEC
:1026C0001FE0E16B09B120468847606D00282BD0E0
:1026D000606DC00714D0052084F8350020680168BB
:1026E00021F0010101600098401C0090B84203D81D
:1026F00020680068C007F6D184F8358084F83490EB
:10270000E16C002910D001B02046BDE8F043084735
:102710000168C905D5D4016821F01001016084F871
:10272000358084F83490CCE7BDE8F8832800002099
:102730002DE9F041044600F0ADF906465CB10220F7
:1027400084F83500002584F834502068016821F0B1
:10275000010101600DE00120BDE8F08100F09AF96F
:10276000801B052805D920206065032084F83500EA
:10277000F2E720680068C007F0D12268116820489D
:102780000140D4E901031843D4E903363343184325
:1027900063691843A3691843E3691843236A18431C
:1027A0000843616A042903D1D4E90B131943084390
:1027B000106020684069666A20F0070130460E43C9
:1027C000012704280CD1A06A0643E06A40B12046E4
:1027D000FFF7FEFA20B14020606584F83570BAE753
:1027E000206846612046FFF7DFFA94F85C203F211D
:1027F00091408160656584F835700020ACE7000089
:102800003F8010F02DE9F0410446866D90F83400C9
:10281000002501280DD0012084F8340094F835708B
:102820000020012F07D084F8340002252846BDE897
:10283000F0810220FBE7022784F8357060652046AE
:10284000FFF7F0FA94F85C103F208840B0602068F1
:10285000016841F016010160206C20B12068016818
:1028600041F0080101602068016841F00101016048
:10287000DCE7000070B5044600F00CF90546601C6A
:1028800002D004480078044400F004F9401BA04240
:10289000FAD370BD1C0000202DE9F84FDFF8BCA171
:1028A0000022012503264FF00F090AF1040BAAF1BB
:1028B000040E00BF0B6805FA02F42340A34270D156
:1028C0000F7907F00307012F01D0022F16D1876877
:1028D0004FEA420806FA08FC27EA0C07D1F80CC0B8
:1028E0000CFA08FC4CEA070CC0F808C04768A7437C
:1028F0000C79C4F3001494403C4344600C79E443E5
:10290000A4070AD0C4684FEA420C06FA0CF7BC438D
:102910008F6807FA0CF72743C7600C7904F00304AB
:10292000022C12D1D40800EB840CDCF820405707AD
:10293000FF0E09FA07F824EA0804D1F8108008FA13
:1029400007F848EA0408CCF8208004684FEA420CF3
:1029500006FA0CF7BC430F7907F0030707FA0CF7E8
:10296000274307604C6814F4403F70D03C4C276804
:1029700047F480472760246822F0030704F480446A
:102980000094384C07EB040CDCF8084897074FEA32
:10299000177809FA08F7BC43334FB84202D1002731
:1029A00024E054E0314FB84201D101271EE0304FFE
:1029B000B84201D1022719E02E4FB84201D10327B6
:1029C00014E02D4FB84201D104270FE02B4FB8423D
:1029D00001D105270AE02A4FB84201D1062705E0B8
:1029E000284FB84201D1072700E0082707FA08F767
:1029F0002743CCF80878DAF800405746D1F804C0ED
:102A00009C435FEACC2C00D51C433C60DBF80040C3
:102A10005F46D1F804C09C435FEA8C2C00D51C4370
:102A20003C60DEF800407746D1F804C09C435FEA82
:102A30008C3C00D51C433C60084F083F3C68D1F8F3
:102A400004C09C435FEACC3C00D51C433C60521C54
:102A5000102AFFF42FAFBDE8F88F0000083C0140BA
:102A600044380240003001400000024000040240AF
:102A700000080240000C0240001002400014024016
:102A800000180240001C02400AB18161704709042D
:102A9000FBE7000001488068704700001C00002030
:102AA0000248816802781144816070471C00002050
:102AB0000B4810B5016841F400710160016841F4F0
:102AC00080610160016841F480710160032000F0C1
:102AD0006FF80F2000F006F800F024F8002010BD79
:102AE000003C024070B50D4D04464FF47A712878D1
:102AF000B1FBF0F00A490968B1FBF0F000F00AFB05
:102B000048B9102C07D200222146501E00F030F8A0
:102B100000206C6070BD012070BD00001C00002012
:102B2000280000200A4808B5016841F4804101608E
:102B3000006800F4804000900548001F016841F0E3
:102B400080510160006800F08050009008BD0000D6
:102B500044380240002809DB00F01F0201219140A7
:102B60004009800000F1E020C0F80011704700002B
:102B7000F0B40E4B1B680C46C3F30223C3F10705E8
:102B8000042D00D90425191D072901D2002300E0D6
:102B9000DB1E012606FA05F1491E214099409E40A0
:102BA000761E16403143F0BC01F082BC0CED00E013
:102BB000064900F0070208684FF6FF03184040EA94
:102BC0000220034A10430860704700000CED00E04B
:102BD0000000FA052DE9F0470E46050065D0DFF844
:102BE0001481D8F80000F7B200F00700B04207D215
:102BF00088F80070D8F8000000F00700B04254D107
:102C000028683D4C810712D5400703D5206840F461
:102C1000E05020602878000703D5206840F4604029
:102C200020602068A96820F0F00008432060287820
:102C3000C0072DD0304968680839012812D0022811
:102C400013D0032811D00968890700292DDA2168DB
:102C500021F0030101432160FFF71CFF814641F28F
:102C6000883A0EE009688903EFE709688901ECE713
:102C7000FFF710FFA0EB0901514502D90320BDE881
:102C8000F0872068696800F00C00B0EB810FEFD18D
:102C9000D8F80010404601F00701B14207D907708B
:102CA000006800F00700B04201D00120E7E7287873
:102CB000400705D52068E96820F4E050084320600B
:102CC0002878000706D52068296920F4604040EA8A
:102CD000C100206000F038F82168084AC1F30311F0
:102CE000515CC8400649086006480068FFF7FAFED4
:102CF0000020C4E7003C024008380240D0520008DF
:102D000028000020200000200448054900680968C8
:102D1000044AC1F38221515CC8407047280000205A
:102D200008380240E0520008044805490068096874
:102D3000044AC1F34231515CC8407047280000206A
:102D400008380240E0520008154810B5006810F03D
:102D50000C02144813D04110042A0FD0082A0ED1B7
:102D60000F4C241F2268236802F03F025B0207D544
:102D70002068C0F38810A0FB010106E0084610BDE2
:102D80002168C1F38811A1FB00010023FDF71AFAA5
:102D90002168C1F30141491C4900B0FBF1F010BDAD
:102DA000083802400024F4002DE9F84F04006ED0EA
:102DB0002078DFF84C93C007A9F104054AD009F147
:102DC00004000168C1F38101012908D00068C0F343
:102DD000810002280AD1D9F80000400206D52868EF
:102DE000800337D560680028E1D033E06068B0F533
:102DF000803F10D0B0F5A02F286810D020F480308C
:102E00002860286820F4802028606068A8B1FFF757
:102E100041FE06460DE0286840F48030F4E740F4B7
:102E200080202860F7E700BFFFF734FE801B64288E
:102E300073D828688003F7D50CE0FFF72BFE064611
:102E400005E000BFFFF726FE801B6428F0D8286845
:102E50008003F7D42078DFF8AC8280074FF0000AB7
:102E60003ED5A748001D016811F00C0F08D000687E
:102E7000C0F3810002280BD1D9F80000400207D42A
:102E80002868800716D5E068012800D112E033E1F8
:102E9000E068B8B10120C8F80000FFF7FBFD064666
:102EA00005E000BFFFF7F6FD801B0228C0D82868A8
:102EB0008007F7D52868216920F0F80040EAC100B2
:102EC00028600DE0C8F800A0FFF7E4FD064604E026
:102ED000FFF7E0FD801B02281FD828688007F7D481
:102EE0002078000722D5864F87486169703771B115
:102EF00001210160FFF7CEFD064604E0FFF7CAFDA1
:102F0000801B022809D838688007F7D50EE0C0F882
:102F100000A0FFF7BFFD064605E082E0FFF7BAFD1F
:102F2000801B02287DD838688007F7D420784007B6
:102F300068D5DFF8CCB100270BF13C0BDBF80000C3
:102F4000C0000BD4DBF8001041F08051CBF800102A
:102F5000DBF80000012700F0805000906B4E3068D5
:102F6000C00510D4306840F480703060FFF792FDE7
:102F7000009005E0FFF78EFD0099401A022850D816
:102F80003068C005F6D55E4EA0686C3601280FD0BB
:102F90000528306810D020F001003060306820F043
:102FA00004003060A068B8B1FFF774FD00900FE036
:102FB000306840F00100F4E740F004003060F7E7CB
:102FC000FFF768FD0099411A41F28830814266D8C6
:102FD00030688007F4D50EE0FFF75CFD009007E055
:102FE000FFF758FD0099411A41F28830814256D8C6
:102FF00030688007F4D42FB1DBF8001021F0805145
:10300000CBF80010A069C8B33D49091D0968C1F398
:10301000810102294AD00228504607D0C8F8600032
:1030200000E03CE0FFF736FD04463BE04746C8F8C9
:103030006000FFF72FFD064605E000BFFFF72AFD01
:10304000801B02282BD828688001F7D4D4E9070117
:103050000843A16A2E4A490802EB0141626A41EA2B
:103060008211084394F82C1040EA0161C9F800105D
:1030700001203866FFF70EFD044606E03EE000BF83
:10308000FFF708FD001B022809D828688001F7D542
:1030900034E000BFFFF7FEFC001B022802D903202A
:1030A000BDE8F88F28688001F4D427E00128F7D024
:1030B000D9F80000E26900F4800191421CD1226A33
:1030C00000F03F01914217D147F6C071626A01409A
:1030D000B1EB821F10D1A26A4FF0FF3300F44031F0
:1030E00003EB5202B1EB024F06D194F82C1000F022
:1030F0007060B0EB016F01D00120D1E70020CFE775
:103100000438024000004742800E474200700040F1
:103110000000FFFF10B5401EB0F1807F01D30120F9
:1031200010BD4FF0E02460610F21601701F0C0F97D
:103130000020A06107202061002010BD70B590F82C
:103140003C20012A32D0012480F83C40022280F841
:103150003D2003685A689D6822F070060A68324371
:103160005A60134B02689A4214D0B2F1804F11D0CA
:10317000104B9A420ED0104B9A420BD00F4B9A42F2
:1031800008D00F4B9A4205D00E4B9A4202D00E4BFC
:103190009A4204D1496825F080031943916080F870
:1031A0003D40002180F83C10084670BD022070BDF3
:1031B000000001400004004000080040000C0040F6
:1031C00000040140004001400018004010B5040018
:1031D00003D094F83D0010B107E0012010BD00209D
:1031E00084F83C00204600F01FF8022084F83D00DF
:1031F000211D206800F06EFD012084F8460084F84F
:103200003E0084F83F0084F8400084F8410084F8D0
:10321000420084F8430084F8440084F8450084F8B0
:103220003D00002010BD000008B50068B0F1804FDF
:1032300008D10548016841F001010160006800F013
:103240000100009008BD00004038024090F83D1099
:10325000012901D001207047022180F83D1000684B
:103260001149884214D0B0F1804F11D00F498842E3
:103270000ED00F4988420BD00E49884208D00E4923
:10328000884205D00D49884202D00D49884204D1B8
:10329000816801F00701062903D0016841F00101AE
:1032A0000160002070470000000001400004004061
:1032B00000080040000C00400004014000400140B4
:1032C0000018004070B5044690F83C000025012825
:1032D00017D0012684F83C60022084F83D00206865
:1032E000826822F0770222F47F42826008685028C8
:1032F00038D00DDC20284FD005DC90B3102811D138
:103300004AE0022070BD302846D040280AD13BE078
:1033100060282FD070280DD0B0F5805F03D0B0F5B5
:10332000005F12D0012584F83D60002084F83C0045
:10333000284670BDCB68D1E90121206800F032FD3C
:103340002068816841F0770109E0CB68D1E901216B
:10335000206800F027FD2068816841F48041816089
:10336000E1E719E0CA684968206800F02DFD5021A6
:10337000206806E0CA684968206800F036FD6021D0
:10338000206800F019FDCEE7CA684968206800F09F
:103390001BFD40212068F4E7226801461046F0E753
:1033A00070477047F8B5016804460868CA684B69F9
:1033B00010F00F0F4FF0000559D003F0010602F492
:1033C0009077374365D0C10705D0D10503D5616C2F
:1033D00041F001016164410705D5D90703D0616C53
:1033E00041F002016164810705D5D90703D0616C02
:1033F00041F004016164010707D502F02001314367
:1034000003D0616C41F008016164616C00293AD01D
:10341000800604D5900602D5204600F0E1FE206823
:103420004069616CC0F38010090700D460B3204686
:1034300000F0AFFE20684069400621D520681430B6
:1034400050E8001F21F0400140E80012002AF5D1A9
:10345000E06BA8B172490165E06BFFF786F80028C0
:1034600011D0E06B016D01B0BDE8F0400847830664
:103470000FD593060DD52046BDE8F84000F0B0BE4C
:103480002046FFF78EFFF8BD2046FFF78AFF6564F0
:10349000F8BD266B2023012E7ED1C6067CD5D6062C
:1034A0007AD508684868009048694FF002064006DF
:1034B0004DD5E26B106840684FF480770004000C33
:1034C0003AD0A18D814237D9E085D069B8422DD05C
:1034D00020680C3050E8001F21F4807140E8001291
:1034E000002AF5D12068143050E8001F21F00101B6
:1034F00040E80012002AF5D12068143050E8001F7F
:1035000021F0400140E80012002AF5D184F8423051
:10351000256320680C3050E8001F21F0100140E8BE
:103520000012002AF5D1E06BFEF7D6FF6663A08D8E
:10353000E18D401A81B206E0A18D8142A8D1D06907
:10354000B842A5D166632046FFF72AFFF8BDA08DDB
:10355000E18D401A81B2E08D0028F7D00029F5D026
:1035600020680C3050E8002F22F4907240E80027C9
:10357000002FF5D12068143050E8002F22F001020E
:1035800040E80027002FF5D184F8423025632068F9
:103590000C3050E8002F00E006E022F0100240E876
:1035A0000023002BF3D1CDE705062BD5150629D531
:1035B00094F841002128C9D1A068B0F5805F01D1FD
:1035C0002069B0B1206A411C2162216800784860FE
:1035D000E08C401E0004000CE084B7D12068C16874
:1035E00021F08001C1602068C16841F04001C160E4
:1035F000F8BD206A0088C0F308004860206A801C7B
:103600002062E5E74006F3D55006F1D5CA682046AA
:1036100022F04002CA6084F8413000F0E5F8F8BDBD
:103620008541000870B5040004D094F841000025DD
:1036300010B106E0012070BD84F84050204600F033
:1036400023F8242084F841002068C16821F4005147
:10365000C160204600F026FE2068016921F49041F7
:1036600001612068416921F02A0141612068C16837
:1036700041F40051C1606564202084F8410084F861
:1036800042006563002070BD10B586B00446142169
:103690006846FCF7CFFD18492068884229D11748B1
:1036A0000021026842F480220260006800F4802059
:1036B000059012481038026842F002020260006869
:1036C00000F0020005904FF4406000900220CDE928
:1036D0000101032003900720049069460848FFF782
:1036E000DBF8002211462720FFF742FA2720FFF7D8
:1036F00031FA06B010BD00000048004040380240DA
:103700000004024090F84230202B01D00220704784
:1037100021B11AB10023036300F04ABE01207047B3
:1037200000680649884207D10549012048700246D1
:10373000891C0448FFF7E6BF7047000000480040BE
:1037400000000020E8A100202DE9F843044690F88D
:103750004100984616460D46202802D00220BDE8BA
:10376000F88385B17EB100206064212084F8410097
:10377000FFF790F9A6848146E684A0682027B0F57B
:10378000805F02D003E00120E9E7206910B12E46F6
:1037900000250EE000260CE08021204600F023FEEC
:1037A000A8B9C6B116F8010B21684860E08C401E2C
:1037B000E084E08C4B464FF00002CDF800800028FA
:1037C000EAD14FF04001204600F00DFE40B184F8F0
:1037D00041700320C3E735F8020BC0F30800E3E7AC
:1037E00084F841700020BAE77047FEE71FB500215A
:1037F0001648009101910291134A0391C0E90021FA
:1038000081600161017680F820104FF08052C26221
:1038100001244FF0C062C4618262C16080F8304010
:103820004161FEF7CDFC08B1FEF7C4FB0720CDE9EE
:1038300000040320029069460448FEF707FC0028B4
:1038400001D0FEF7B7FB1FBD0020014050A00020B3
:103850001FB500211648009101910291134A03916E
:10386000C0E9002181600161017680F82010120515
:10387000C26201244FF0C062C4618262C16080F8FC
:1038800030404461FEF79CFC08B1FEF793FB082032
:10389000CDE900040320029069460548FEF7D6FBF7
:1038A000002801D0FEF786FB1FBD0000002101406B
:1038B00098A000200D4808B5016841F4800101601E
:1038C0000068002200F48000009011463820FFF7C5
:1038D0004FF93820FFF73EF9002211463A20FFF752
:1038E00047F9BDE808403A20FFF734B930380240C4
:1038F0002DE9F04387B014216846FCF79BFC314862
:103900000024016841F080010160016801F080013C
:103910000591016841F001010160016801F00101B8
:103920000591016841F002010160016801F00201A6
:103930000591016841F0040101600068DFF888909A
:1039400000F004000590002249F67E714846FFF71A
:103950009BF81E4F43F2F806002231463846FFF727
:1039600093F8DFF86C80012240214046FFF78CF885
:103970007E200125CDE900050220CDE902406946FF
:103980004846FEF789FF0096CDE90154694638465E
:103990000394FEF781FF40200090CDE90154694671
:1039A00040460394FEF778FF4FF41F400090CDE9A6
:1039B0000154694648460394FEF76EFF07B0BDE820
:1039C000F083000030380240000002400004024052
:1039D0000008024010B586B0002116480091019100
:1039E0000291039104914FF08042059102600722F9
:1039F000C0E9012180248461C0E90321FFF7E6FBCF
:103A000008B1FEF7D7FA4FF4805000906946094894
:103A1000FFF758FC08B1FEF7CDFA2020CDE90404E9
:103A200004A90448FFF78AFB002801D0FEF7C2FA78
:103A300006B010BDA0A100200C4810B50A490160D5
:103A40004FF416514160002181600C22C160C0E931
:103A500004128161C161FFF7E5FD002803D0BDE8D4
:103A60001040FEF7A7BA10BD00480040E8A10020B2
:103A7000FEE7FEE77047000070B5424B00209FED67
:103A8000421A9FED420A03F5E041A1F5C0424FF40E
:103A9000006500BF33F8104000EE904A01EB80044F
:103AA000F8EE600AD4ED001A02EB8004401C70EEC0
:103AB000C10AA84260EE800A60EEA10AC4ED000AC5
:103AC000E8DB334A2F480023A2F500511838FDF7F0
:103AD000E7FE4FF480622F492D48FDF771FA9FED04
:103AE0002E0A002101232B4DF0EE400A0A4626241F
:103AF000184600BF05EB800696ED001AB4EEC01A1A
:103B0000F1EE10FA02DDB0EE410A0146401CA0427F
:103B1000F0D91846431A00D55B42052B0BDD05EBA7
:103B2000800393ED001AB4EEE01AF1EE10FA02DD14
:103B3000F0EE410A0246401CA042EBD901EE101AF9
:103B400001EE902A9FED152AB8EE411AF8EE611A9F
:103B5000134821EE021A61EE821A00F1080180EC8E
:103B6000021AB4EEE11A81EC020AF1EE10FA07DD56
:103B7000C0ED001A80ED011AC1ED000A81ED010AC5
:103B800070BD000050000020000000450000003A19
:103B900050300020509000200000000000247445A8
:103BA0000C000020704710B540F2FF342146102071
:103BB00001F02EFA2146BDE81040202001F028BA7D
:103BC00070B50C462DED028BBCEEC08AF0EE608A1B
:103BD00042F202054FF48046012812D018EE101A66
:103BE000102001F09BFA00BFBCEEE88A012C11D036
:103BF00018EE101ABDEC028B2020BDE8704001F0D9
:103C00008DBAFDF76DFF2946B8EE480A3046FDF73C
:103C100087FFE9E7FDF764FFB8EE480ABDEC028BC9
:103C200029463046BDE87040FDF77ABFFEF738BF41
:103C300030B593B030216846FCF7FCFA14210CA88B
:103C4000FCF7F8FA1D480025016841F08051016039
:103C5000006800F0805011901948016841F48041DB
:103C600001600068022400F480401190012000905F
:103C7000000401908001CDE9064008AA04208021BB
:103C800082E813000B906846FFF78EF808B172B611
:103C9000FEE70CA90F2081E831004FF4A0500F90EF
:103CA0004FF48050109004210CA8FEF793FF0028D9
:103CB00001D072B6FEE713B030BD000040380240BC
:103CC000007000400248016841F4700101607047D3
:103CD00088ED00E0F0B50268274B284D284E294FAB
:103CE000294C4FF0804C984209D0604507D0A8423B
:103CF00005D0B04203D0B84201D0A04204D122F096
:103D0000700E4A6842EA0E0298421BD0604519D0F4
:103D1000A84217D0B04215D0B84213D0A04211D05B
:103D20001A4DA8420ED01A4DA8420BD0194DA842E8
:103D300008D0194DA84205D0184DA84202D0184D00
:103D4000A84203D122F44075CA682A434D6922F083
:103D500080022A438D68C5620D688562984201D051
:103D6000A04201D109690163016841F004010160C9
:103D7000012141610260F0BD0000014000040040EB
:103D800000080040000C00400004014000400140D9
:103D9000004401400048014000180040001C004061
:103DA0000020004010B5846842EA032224F47F44D6
:103DB0000A432243826010BD826822F070020A43E7
:103DC00042F007018160704710B5036A046A24F06D
:103DD00001040462846924F0F00444EA021423F02C
:103DE0000A020A438461026210BD10B5036A046AC4
:103DF00024F010040462846923F0A00324F47044C6
:103E000044EA023243EA01118261016210BD0000FE
:103E100010B56420FEF72EFD0BA000F051F8322003
:103E2000FEF728FD0BA000F04BF812A000F048F8B8
:103E300018A000F045F819A000F042F8BDE81040C5
:103E400018A000F011BB000070616765206D61690A
:103E50006E00000074302E7478743D2257616974CE
:103E6000696E6720666F72207369676E616C2E2EB3
:103E70002E22000074312E7478743D2257616974CB
:103E8000696E6720666F72207369676E616C2E2E93
:103E90002E220000636C6520312C3000636C65209D
:103EA000322C3000544A432073637265656E20697A
:103EB0006E697469616C697A65640D0A00000000BE
:103EC00038B50446FCF7C1F92146084C82B2642398
:103ED000A068FFF739FC06A0642300680090032265
:103EE0006946A068FFF730FC38BD000000000020E4
:103EF000FFFFFF002DE9F043C8204FF4006191FB64
:103F0000F0F62DED028B99B0642736A0FFF7D8FFAD
:103F10009FED368A364900204FF4806201EB800322
:103F200093ED000AB4EEC80AF1EE10FA01DDB0EE2E
:103F3000408A401C9042F1DB0024DFED2E8A2546AA
:103F40008846914608EB8400D0ED000A80EE880A8E
:103F500020EE280ABDEEC00A10EE100AFF2800DD90
:103F6000FF20C0F1FF032A4623A1684600F08CFA27
:103F70006846FFF7A5FF34446D1C4C4501DABD428D
:103F8000E0DB2148DFED210A90ED000A80EE201AE7
:103F9000BCEEC10A10EE101A90ED010AB1FBF6F268
:103FA00080EE201ABA42BCEEC10A10EE100AB0FB35
:103FB000F6F407DA134616A1684600F065FA68467B
:103FC000FFF77EFFBC4208DA23461A4616A1684670
:103FD00000F05AFA6846FFF773FF19B0BDEC028B88
:103FE000BDE8F083636C6520312C3000CDCCCC3D36
:103FF000509000200000484361646420312C302C34
:1040000025642C25640000000C0000200024744569
:104010006C696E652025642C35302C25642C323576
:10402000302C5245440000006C696E652025642CDC
:1040300035302C25642C3235302C424C554500004F
:1040400010B501282DED028B10EE100A9AB00C4627
:10405000B0EE608A28D0FCF797F941EC100B1AA15A
:1040600053EC102B684600F00FFA6846FFF728FF64
:1040700018EE100A012C1FD0FCF786F941EC100B4A
:104080001AA153EC102B684600F0FEF96846FFF7C2
:1040900017FF1FA1684600F0F7F96846FFF710FF09
:1040A0001AB0BDEC028B10BDFCF76EF941EC100BA1
:1040B00020A153EC102BD5E7FCF766F941EC100B6F
:1040C00026A153EC102BDEE774302E7478743D2259
:1040D0005369676E616C20413A20252E3166204875
:1040E0007A202853696E65292200000074312E74ED
:1040F00078743D225369676E616C20423A20252E08
:10410000316620487A202853696E65292200000014
:1041100074322E7478743D224F75747075743A2021
:104120004E6F726D616C20285670703E3D3156297D
:104130002200000074302E7478743D225369676E3B
:10414000616C20413A20252E316620487A2028547F
:104150007269616E676C65292200000074312E74EB
:1041600078743D225369676E616C20423A20252E97
:10417000316620487A2028547269616E676C65291F
:104180002200000010B5806B0021C185FFF709F9FE
:1041900010BD01680C3151E8002F22F4907241E803
:1041A0000023002BF5D10168143151E8002F22F0D3
:1041B000010241E80023002BF5D1016B012909D14F
:1041C00001680C3151E8002F22F0100241E8002371
:1041D000002BF5D1202180F84210002101637047A7
:1041E00008B590F84210222901D0022008BD82684B
:1041F0004FF480539A4201D1016921B1816A9A42F8
:104200001BD04AB10AE00268816A5268C2F3080210
:104210000A80816A891C08E0026972B102685268EA
:1042200002F07F020A70816A491C8162C18D491EB9
:104230000904090CC18503D01BE002685268F1E74C
:104240000168CA6822F02002CA600168CA6822F4C4
:104250008072CA6001684A6922F001024A61202125
:1042600080F8421000214163026B012A03D0FFF75E
:1042700057FA002008BD016301680C3151E8002F96
:1042800022F0100241E80023002BF5D101680A68F2
:10429000D20602D50A6849680091818DFFF780F83F
:1042A000E7E7000070B5044600680169E26821F4A0
:1042B0004051114301612169A068E26908436169C5
:1042C000114308432168CA6849F20C639A430243C8
:1042D000CA6020684169A26921F4407111434161BB
:1042E00031492068884202D03049884202D1FEF725
:1042F0001BFD01E0FEF708FDE2690023192164259A
:104300003226B2F5004F626828D0A0FB0101930F5E
:104310009200FBF757FF0146B0FBF5F06FF0180273
:10432000504301EB800006EB0010B0FBF5F000F00D
:10433000F002B1FBF5F002EB0012B1FBF5F06FF00B
:104340001803584301EB800006EB0010B0FBF5F0BA
:1043500000F00F0021681044886070BDA0FB0101CF
:1043600092185B41FBF72EFF0146B0FBF5F002010E
:10437000B1FBF5F06FF01803584301EB800006EB3A
:10438000C000B0FBF5F000F0F80002EB4002B1FB1A
:10439000F5F0584301EB800006EBC000B0FBF5F0F0
:1043A00000F00700D6E700000010014000140140B3
:1043B00081628285C28500214164222180F84210F9
:1043C000016921B10168CA6842F48072CA6001685B
:1043D0004A6942F001024A610068C16841F0200167
:1043E000C160002070472DE9F843984617460D46F6
:1043F0000446089E24E0701C22D0FEF74BFBA0EB85
:104400000800B0421AD8CEB12068C168490717D554
:10441000802D15D0402D13D00168C94309070FD452
:1044200001680025406800902046FFF7B2FE082092
:10443000606484F840500120BDE8F8830320FBE766
:104440002068006835EA000004D00020B842D2D0CD
:104450000020F1E70120F9E70148FEF7A3BF0000C3
:10446000E8A10020FEE700000FB4054B10B503A93A
:10447000044A029800F06EF910BC5DF814FB0000CD
:10448000A1510008300000200FB4084B10B504A95A
:1044900002AA039800F05EF9044602A9002000F089
:1044A000DCFC204610BC5DF814FB00005B4E0008ED
:1044B0000907090E002804DB00F1E02080F8001451
:1044C000704700F00F0000F1E02080F8141D7047E5
:1044D00010B52DED028BB0EE408A18EE100AFBF7F6
:1044E0009BFF01EE100A18EE100AB7EE000A78EEF4
:1044F000410A10F0004F4FF07F4010EE901A12D09A
:10450000B1F13F4F24BF10EE901AB0EB410F12D221
:1045100010EE901AB1F17C5F1CDD10EE901AB0EB3A
:10452000410F17D314E0B1F13F4F07D910EE901AA5
:10453000B0EB410F02D331EE401A0BE010EE901AAF
:10454000B1F17C5F06DB10EE901AB0EB410F01D3A6
:1045500031EE001A18EE100ABDEC028B11EE101AA3
:1045600061F31E0000EE100A10BD10B52DED028B98
:10457000B1EEC08A18EE100A20F00040C0F1FF40F2
:10458000C00F0AD010EE100A20F00040C0F1FF402A
:10459000C00F04BF012000F015F8B0EE480ABDECD2
:1045A000028B10BD02E008C8121F08C1002AFAD110
:1045B00070477047002001E001C1121F002AFBD1A3
:1045C0007047000001490860704700003400002077
:1045D0002DE9FF5F82B00021DDE90430020DDDF836
:1045E00040B0034318D044F61050A2F2FF324243C9
:1045F0001514119801281FD0A5EB0B00401C5FEA91
:10460000000A4FF000064E4FDFF83891B046504692
:1046100015D5CAF1000413E0119801244AA301281A
:1046200001D16FEA0B010298119AC0E90031C0E98B
:10463000024206B0BDE8F09FCBF10000DFE7044680
:104640000021404A491842EB0450CDE9001012E025
:10465000E00707D032463B4640464946FBF7FCFDA3
:104660008046894632463B4610461946FBF7F4FD24
:1046700006460F466410002CEAD1DDE90401DDE9AD
:104680000023BAF1000F06DAFBF7E6FD42464B467F
:10469000FBF7E2FD05E0FBF7E1FF42464B46FBF787
:1046A000DDFF04460E460022284BFCF75FF803D8D6
:1046B0004FF0FF30014607E00022254B20463146EF
:1046C000FBF725FFFCF739F8102409E0002C0ADB82
:1046D0000A220023FBF776FD039B30321A55641E35
:1046E00050EA0102F2D1641C039AC4F1110314448C
:1046F000119A012A03D0012208430DD10AE0084390
:1047000004D000204FF0110B119072E7A3EB0B05C2
:104710006D1E0DE05B4504DD4FF0000205F1010563
:1047200004E003DA4FF00002A5F10105002AECD005
:1047300002981199C0E90231C0E9004579E700000B
:10474000000014400000F03F300000000000F04383
:104750000000E03F2DE9FF4F95B09A468846064697
:104760000025EEE1252877D100242746F94A0121CA
:10477000039400E0044316F8013F203B01FA03F0E4
:104780001042F7D130782A2811D06FF02F033078FB
:10479000A0F13002092A16D8039A44F0020402EB71
:1047A000820203EB42021044761C0390EFE758F8B4
:1047B000042B0392002A03DA504244F4005403907D
:1047C00044F00204761C30782E2816D116F8010F1A
:1047D00044F004042A280DD06FF02F023078A0F1A5
:1047E0003003092B09D807EB870302EB4303C718F3
:1047F000761CF3E758F8047B761C30786C280FD0D1
:1048000006DC4C2817D068280DD06A2814D104E0A3
:10481000742810D07A280FD10DE044F400140AE077
:1048200044F4801401E044F440147278824202D1CE
:1048300004F58014761C761C307866280BD013DCC7
:10484000582877D009DC002875D04528F6D04628AE
:10485000F4D047281AD193E118E0632835D06428B2
:1048600079D0652812D18BE1702873D008DC6728D5
:10487000F1D069286FD06E280DD06F2806D1ACE03A
:1048800073282CD0752874D0782853D052461799A5
:1048900090476D1C54E1C4F30250022809D003284C
:1048A0000DD0D8F8001004280DD00D6008F10408D0
:1048B00046E1D8F80010EA17C1E90052F6E7D8F847
:1048C00000100D80F2E70D70F0E718F8041B8DF86A
:1048D000001000208DF80100EB46012003E058F89D
:1048E00004BB4FF0FF3061074FF0000102D40DE030
:1048F00009F101018946B9420FDA8145F8DB1BF85D
:1049000009100029F4D108E009F10101894681422A
:10491000FADB1BF809100029F6D103985346A0EBE7
:10492000090721463846179A00F080FA284400EB20
:10493000090507E044E008E10DE01BF8010B5246D1
:1049400017999047B9F10109F7D2534621463846E5
:10495000179AF2E039E00A21C4F302524FF0000B3B
:104960000091022A06D058F8040BC117032A09D077
:104970000AE023E008F1070020F00702F2E8020154
:10498000904605E000B2C117042A01D140B2C11718
:10499000002906DA0A460021404261EB02012D227D
:1049A00002E0220504D52B228DF80420012203E029
:1049B000E20701D02022F7E7914657E00A2100E004
:1049C00010214FF0000B00910BE010214FF0000B75
:1049D00044F004040827009103E008204FF0000B86
:1049E0000090C4F30252022A05D058F8040B0021AB
:1049F000032A08D008E008F1070020F00702F2E8D7
:104A00000201904603E080B2042A00D1C0B24FF008
:104A1000000922072AD53278702A07D0DDF800C0B5
:104A20008CF0100C5CEA0B0C05D00EE040228DF8E7
:104A30000420012208E050EA010306D030238DF85B
:104A400004308DF8052002229146009B83F0080374
:104A500053EA0B030AD150EA010201D1620705D5DE
:104A600030228DF804204FF001097F1E3278582A39
:104A700004D039A20C920CAA02920BE03BA2F9E7F7
:104A80005B46009AFBF79EFB0C9B9B5C029A521EB6
:104A90000292137050EA0102F2D1029804A9081A96
:104AA00000F1200B600702D524F4803400E00127D8
:104AB0005F4502DDA7EB0B0000E0002000EB0B01DF
:104AC000009003984944401A0390E00306D45346EB
:104AD0002146179A039800F0A9F90544002706E03B
:104AE00001A85246C05D179990476D1C7F1C4F4529
:104AF000F6DBE0030CD553462146179A039800F0E5
:104B000095F9054404E030205246179990476D1CF2
:104B10000099481E00900029F5DC08E002980299EF
:104B200052460078491C0291179990476D1CBBF1C1
:104B30000001ABF1010BF1DC5BE100F065F905442C
:104B4000761C307800287FF40DAE19B02846BDE8F9
:104B5000F08F000009280100303132333435363708
:104B600038396162636465660000000030313233B9
:104B70003435363738394142434445460000000059
:104B8000600700D4062708F1070020F00700F0E8CE
:104B90000223804603F0004C5FEA0C0001D097A08E
:104BA00009E0200501D596A005E0E00701D095A019
:104BB00001E0AFF24C001390307823F000436528F9
:104BC0000CD006DC452809D046281DD047287FD1C7
:104BD0003BE0662818D067287AD136E00021112FF3
:104BE00001DB112000E0781CCDE9000104A90CA82C
:104BF000FFF7EEFCDDE90D010C9A4FF0000B07F119
:104C00000109109200914EE04FF000400097CDE96D
:104C1000011004A90CA8FFF7DBFCDDE90D020C9BD9
:104C20000F994FF0000B91461093009211B9791C27
:104C300000EB0109B7EB090003D4C0F1FF3B07F11A
:104C40000109A9EB0700019042E0012F00DA0127DA
:104C50000021112F01DD112000E03846CDE90001CF
:104C600004A90CA8FFF7B4FCDDE90D010C9A009132
:104C70004FF0000BB946109221070FD4009A4A4515
:104C800003DA914601E0A9F10109B9F1010F05DD4F
:104C9000109AA9F10101515C3029F4D0B84202DA2E
:104CA00010F1040F03DA0121CDE9011010E0002812
:104CB00003DC8344A9EB000102E0411C494500DD0F
:104CC0008946A0EB0B00401C01904FF00040029081
:104CD000200705D40198484502DB4FF0FF300190D2
:104CE00000208DF84B0002980DF14B07B0F1004FFA
:104CF00025D002200C902B200D90029800280CDA71
:104D0000404202902D200D9007E00A210298FBF707
:104D10004EFB3031029007F8011D0C99481E0C9093
:104D20000029F2DC02980028EFD1791E0D98087056
:104D3000307800F0200040F0450007F8020D11A87F
:104D4000C01BC01D02901398007800B1012000EB39
:104D50000901019801EBE071029801440398401A9F
:104D6000401E0390E00306D453462146179A039849
:104D700000F05CF805441398007818B15246179972
:104D800090476D1CE00323D553462146179A03989C
:104D900000F04CF805441BE0BBF1000F07DB009866
:104DA000584504DD1098179910F80B0001E0179989
:104DB00030205246904701980BF1010B401E05F13F
:104DC0000105019004D12E205246179990476D1C81
:104DD000B9F10001A9F10109DEDC05E017F8010BCA
:104DE0005246179990476D1C0299481E029000295F
:104DF000F4DC53462146179A03989EE62D000000E6
:104E00002B000000200000002DE9F04104460025A1
:104E10001E461746880404D405E039462020B047D2
:104E20006D1C641EF9D52846BDE8F0812DE9F041DE
:104E3000044600251E469046C80301D5302700E0F1
:104E40002027880404D505E041463846B0476D1C4C
:104E5000641EF9D52846BDE8F0810A68531C0B6032
:104E60001070704700EB40008000401EFDD270477C
:104E700038B523A00068009000F046F800F0AAF8CA
:104E800001236A460321184600F0DCF802210123C1
:104E90001C4A084600F0D6F84FF47A7421461020D8
:104EA00000F03CF92146202000F038F9214640204E
:104EB00000F034F92146802000F030F90021102064
:104EC00000F058F90021202000F054F90021402082
:104ED00000F050F90021802000F04CF9FF21102053
:104EE00000F096F8FF21202000F092F8FF214020EA
:104EF00000F08EF8FF21802000F08AF838BD000015
:104F0000D00000002C00002070B5214C00224FF48E
:104F100000512046FDF7B8FD1E4D01221102284622
:104F2000FDF7B2FD002261152846FDF7ADFD002218
:104F300021152846FDF7A8FD0022E1142846FDF7BB
:104F4000A3FD0022A1142846FDF79EFD00224FF488
:104F500000412846FDF798FD002208212046FDF774
:104F600093FD002210212046FDF78EFD0022202116
:104F70002046FDF789FD002240212046FDF784FDF3
:104F80002046BDE8704000228021FDF77DBD000075
:104F9000000402400000024070B50D4D4FF48064E3
:104FA000002221462846FDF76FFD0220FFF75AFF39
:104FB000012221462846FDF767FD0420FFF752FF36
:104FC00021462846BDE870400022FDF75DBD000087
:104FD0000000024070B50D4D4FF480540022214670
:104FE0002846FDF751FD0120FFF73CFF0122214635
:104FF0002846FDF749FD1E20FFF734FF21462846CD
:10500000BDE870400022FDF73FBD000000040240F3
:105010001CB5002200928DF8040010208DF80210BB
:1050200040EA11208DF80100012301AA1946002051
:1050300000F008F801236A460321062000F002F878
:105040001CBD00002DE9FF5F324D89460446002655
:105050004FF400779B46324639462846FDF714FD4B
:105060000022A9152846FDF70FFDDFF8ACA00022AD
:1050700039462846FDF708FD200601D5012200E04B
:10508000002210215046FDF7FFFC01223946284638
:10509000FDF7FAFC6006761C040EF6B2082EE6D385
:1050A000002239462846FDF7EFFC0024A84622E0FE
:1050B00002980025065D002239464046FDF7E4FCD3
:1050C000300601D5012200E0002210215046FDF7F4
:1050D000DBFC012239464046FDF7D6FC70066D1C0C
:1050E000060EEDB2082DE6D3002239464046FDF704
:1050F000CBFC641CE4B24C45DAD3BBF1000F01D009
:10510000FFF74AFF04B04046BDE8F05F01221102FC
:10511000FDF7BABC00000240000402401CB50022AA
:105120008DF8040000920846FBF708F99FED0F1B6D
:1051300053EC112BFBF790F8FBF70DF98DF80300FA
:10514000010A8DF80210010C8DF80110000E8DF887
:105150000000012301AA19460020FFF773FF042174
:1051600001236A460846FFF76DFF1CBD95D626E869
:105170000B2E214008B501238DF8000007486A4630
:105180004170090A017019460020FFF75BFF0123F7
:10519000024A02210520FFF755FF08BD2E0000201E
:1051A00004490A685206FCD5024AC1B2121D1160B8
:1051B00070470000004800402DED028BFDF778FCA1
:1051C000FEF736FDFEF794FBFEF774FBFEF734FCAA
:1051D000FEF70CFBFEF73CFBFEF7FCFBFFF748FE7F
:1051E00040F2FF3421461020FFF712FF2146202015
:1051F000FFF70EFFFCF7FCFE4FF4006739462C4822
:10520000FCF771FB01222B492B48FEF77BFA2B4858
:10521000FEF71CF826493A4618312948FDF77AF876
:10522000FEF7F6FD234C0025A41E207880B360789D
:1052300070B32570FEF720FCFCF70AFE1D4E9FEDB3
:10524000218A0A3696ED000AF0EE480AFCF7B4FE11
:10525000F0EE408A96ED010AF0EE480AFCF7ACFE4B
:10526000093EB0EE408A71783078F0EE480AB0EE30
:10527000680AFEF7A5FCFEF796FC71783078F0EE30
:10528000480AB0EE680AFEF7DBFEFEF733FE6570F3
:10529000207840B1607830B9257005493A46183118
:1052A0000748FDF737F80A20FDF7E4FABDE70000EC
:1052B0003800002002000020E8A10020A0A100206A
:1052C00050A0002000409C45000610160006101655
:1052D00000000000000000000102030406070809A6
:1052E000000000000102030408000010100000028A
:1052F00018000012200000042800001430000006EE
:105300003800001640000008480000185000000A4D
:105310005800001A6000000C6800001C7000000EAD
:105320007800001E800000088800401090004002B5
:1053300098004012A0004004A8004014B0004006AD
:10534000B8004016C0004008C8004018D000400A0D
:10535000D800401AE000400CE800401CF000400E6D
:10536000F800401E000100080801801010018002B2
:105370001801801220018004280180143001800669
:105380003801801640018008480180185001800AC9
:105390005801801A6001800C6801801C7001800E29
:1053A0007801801E800140088801C0109001C00271
:1053B0009801C012A001C004A801C014B001C00629
:1053C000B801C016C001C008C801C018D001C00A89
:1053D000D801C01AE001C00CE801C01CF001C00EE9
:1053E000F801C01E000200080802001110020003AC
:1053F00018020013200200052802001530020007E1
:105400003802001740020009480200195002000B40
:105410005802001B6002000D6802001D7002000FA0
:105420007802001F80028008880240119002400329
:1054300098024013A0024005A8024015B0024007A0
:10544000B8024017C0024009C8024019D002400B00
:10545000D802401BE002400DE802401DF002400F60
:10546000F802401F00034008080380111003800366
:10547000180380132003800528038015300380075C
:105480003803801740038009480380195003800BBC
:105490005803801B6003800D6803801D7003800F1C
:1054A0007803801F8003C0088803C0119003C003E5
:1054B0009803C013A003C005A803C015B003C0071C
:1054C000B803C017C003C009C803C019D003C00B7C
:1054D000D803C01BE003C00DE803C01DF003C00FDC
:1054E000F803C01F00040010080408101004001185
:1054F00018040812200408102804081430040806B0
:105500003804081640040808480408185004080A1B
:105510005804081A6004080C6804081C7004080E7B
:105520007804081E800400188804481090040019AC
:1055300098044812A0040818A8044814B0044806A7
:10554000B8044816C0044808C8044818D004480ADB
:10555000D804481AE004480CE804481CF004480E3B
:10556000F804481E00054010080588101005401179
:10557000180588122005481028058814300588066B
:105580003805881640058808480588185005880A97
:105590005805881A6005880C6805881C7005880EF7
:1055A0007805881E800540188805C81090054019A8
:1055B0009805C812A0054818A805C814B005C80663
:1055C000B805C816C005C808C805C818D005C80A57
:1055D000D805C81AE005C80CE805C81CF005C80EB7
:1055E000F805C81E00068010080608111006801174
:1055F0001806081320068810280608153006080724
:105600003806081740060809480608195006080B0E
:105610005806081B6006080D6806081D7006080F6E
:105620007806081F800680188806481190068019A1
:1056300098064813A0068818A8064815B00648071B
:10564000B8064817C0064809C8064819D006480BCE
:10565000D806481BE006480DE806481DF006480F2E
:10566000F806481F0007C010080788111007C0116E
:10567000180788132007C8102807881530078807DF
:105680003807881740078809480788195007880B8A
:105690005807881B6007880D6807881D7007880FEA
:1056A0007807881F8007C0188807C8119007C0199D
:1056B0009807C813A007C818A807C815B007C807D7
:1056C000B807C817C007C809C807C819D007C80B4A
:1056D000D807C81BE007C80DE807C81DF007C80FAA
:1056E000F807C81F08081010100840081808101202
:1056F00020080011280810143008801138081016EE
:10570000480810185008100A5808101A6008100CA1
:105710006808101C7008100E7808101E8008000A17
:10572000880850109008000B98085012A008080A2A
:10573000A8085014B008080BB8085016C008100A82
:10574000C8085018D008500AD808501AE008500C61
:10575000E808501CF008500EF808501E0809901078
:1057600010098009180990122009001928099014BD
:1057700030098019380990164009000B4809901823
:105780005009900A5809901A6009900C6809901CF9
:105790007009900E7809901E8009400A8809D0107F
:1057A0009009400B9809D012A009480AA809D01402
:1057B000B009480BB809D016C009500AC809D0185A
:1057C000D009D00AD809D01AE009D00CE809D01CB9
:1057D000F009D00EF809D01E080A1011180A10138B
:1057E000200A4011280A1015300AC011380A101773
:1057F000480A1019500A100B580A101B600A100DA5
:10580000680A101D700A100F780A101F880A5011BC
:10581000900A800B980A5013A00A5011A80A50153C
:10582000B00A880BB80A5017C00A800BC80A501972
:10583000D00A500BD80A501BE00A500DE80A501D40
:10584000F00A500FF80A501F080B9011180B901314
:10585000200B4019280B9015300BC019380B9017EE
:10586000480B9019500B900B580B901B600B900D30
:10587000680B901D700B900F780B901F880BD01148
:10588000900BC00B980BD013A00B5019A80BD01580
:10589000B00BC80BB80BD017C80BD019D80BD01B46
:1058A000E00BD00DE80BD01DF00BD00FF80BD01F84
:1058B000000C0012080C1810100C0013180C181211
:1058C000200C0812280C1814300C0813380C181669
:1058D000400C1012480C1818500C1013580C181AC1
:1058E000600C1812680C181C700C180E780C181E1E
:1058F000800C001A880C5810900C001B980C581241
:10590000A00C081AA80C5814B00C081BB80C581698
:10591000C00C101AC80C5818D00C101BD80C581AF0
:10592000E00C181AE80C581CF00C580EF80C581E15
:10593000000D4012080D9810100D4013180D98120C
:10594000200D4812280D9814300D4813380D981664
:10595000400D5012480D9818500D5013580D981ABC
:10596000600D5812680D981C700D980E780D981ED9
:10597000800D401A880DD810900D401B980DD8123C
:10598000A00D481AA80DD814B00D481BB80DD81694
:10599000C00D501AC80DD818D00D501BD80DD81AEC
:1059A000E00D581AE80DD81CF00DD80EF80DD81ED1
:1059B000000E8012080E1811100E8013180E181306
:1059C000200E8812280E1815300E8813380E18175E
:1059D000400E9012480E1819500E9013580E181BB6
:1059E000600E9812680E181D700E180F780E181F92
:1059F000800E801A880E5811900E801B980E581336
:105A0000A00E881AA80E5815B00E881BB80E58178D
:105A1000C00E901AC80E5819D00E901BD80E581BE5
:105A2000E00E981AE80E581DF00E580FF80E581F89
:105A3000000FC012080F9811100FC013180F981301
:105A4000200FC812280F9815300FC813380F981759
:105A5000400FD012480F9819500FD013580F981BB1
:105A6000600FD812680F981D700F980F780F981F4D
:105A7000800FC01A880FD811900FC01B980FD81331
:105A8000A00FC81AA80FD815B00FC81BB80FD81789
:105A9000C00FD01AC80FD819D00FD01BD80FD81BE1
:105AA000E00FD81AE80FD81DF00FD81BF80FD81F39
:105AB0000810201010104010181020122810201468
:105AC000301088103810201640100011481020188F
:105AD000501040115810201A601008126810201C35
