:020000040800F2
:1000000020060020A1010008071E00087F1B000831
:10001000051E0008D90600085D2200080000000047
:100020000000000000000000000000000B1E00089F
:100030007107000800000000091E00080D1E0008DE
:10004000BB010008BB010008BB010008BB010008A0
:10005000BB010008BB010008BB010008BB01000890
:10006000BB010008BB010008BB010008BB01000880
:10007000BB010008BB010008BB010008BB01000870
:10008000BB010008BB010008BB010008BB01000860
:10009000BB010008BB010008BB010008BB01000850
:1000A000BB010008BB010008BB010008BB01000840
:1000B000BB010008BB010008BB010008BB01000830
:1000C000BB010008BB010008BB010008BB01000820
:1000D000BB010008BB010008BB0100085122000859
:1000E000BB010008BB010008BB010008BB01000800
:1000F000BB010008BB010008BB010008BB010008F0
:10010000BB010008BB010008BB010008BB010008DF
:10011000BB010008BB010008BB010008BB010008CF
:10012000DD060008BB010008E9060008BB01000865
:10013000BB010008BB010008BB010008BB010008AF
:10014000BB010008BB010008BB010008BB0100089F
:10015000BB010008BB010008BB010008BB0100088F
:10016000BB010008BB010008BB010008BB0100087F
:10017000BB010008BB010008BB0100080000000033
:10018000BB010008BB010008DFF810D000F084F9C3
:1001900000480047D9250008AFF300802006002062
:1001A0000648804706480047FEE7FEE7FEE7FEE711
:1001B000FEE7FEE7FEE7FEE7FEE7FEE7A51E000816
:1001C000890100082DE9F05F0546002092469B4614
:1001D00088460646814640241BE02846414647465D
:1001E000224600F0ECF853465A46C01A914110D30B
:1001F00011461846224600F0D3F82D1A67EB010885
:100200004F4622460120002100F0CAF817EB0009F2
:100210004E41201EA4F10104DFDC484631462A4647
:100220004346BDE8F09FD2B201E000F8012B491E21
:10023000FBD270470022F6E710B513460A46044683
:100240001946FFF7F0FF204610BD2DE9FE4F81EA69
:10025000030404F0004421F0004100944FF0000B2F
:1002600023F0004350EA01045ED052EA03045BD05D
:10027000C3F30A54C1F30A552C44A4F2F334019495
:10028000A0FB0254C1F3130141F48011C3F3130323
:1002900043F4801301FB024400FB034E840A970AD7
:1002A00044EA815447EA8357A4FB076802958D0A04
:1002B00005FB07854FEA932C04FB0C542705029D90
:1002C0004FEA065847EA1637B5EB08056EEB070C00
:1002D000870E920E47EA811742EA8312A7FB0201BA
:1002E000B6EB0B0164EB00042B0D43EA0C335E18F4
:1002F00044EB1C50DA465146E7FB0201C5F31304F8
:100300004FEA0B3343EA14534FEA0432019C43EAA9
:100310000603A4F10C040294009CCDE900B400F0A3
:100320006DF803B0BDE8F08F00200146F9E70EB587
:1003300040F2334102910021CDE900110A460B46FB
:1003400000F05CF803B000BDC1F30A5210B5C1F370
:10035000130140F2FF3341F480119A4201DA002088
:1003600010BD40F233439A42A2F2334203DC5242C0
:1003700000F025F810BD904010BD00F0004230F0B4
:1003800000400AD0C10D01F56071C0F3160042EAC9
:100390000151C208400711437047002001467047D1
:1003A000202A04DB203A00FA02F100207047914035
:1003B000C2F1200320FA03F3194390407047202A2A
:1003C00004DB203A21FA02F00021704721FA02F3FF
:1003D000D040C2F12002914008431946704710B541
:1003E000141E73F1000408DA401C41F10001921858
:1003F0005B411A4301D120F0010010BD2DE9F04D01
:1004000092469B4611B1B1FA81F202E0B0FA80F255
:1004100020329046FFF7C4FF04460F4640EA0A0028
:1004200041EA0B0153465A46084313D0114653EA9A
:10043000010019D0C8F140025046FFF7C0FF054641
:100440000E46504659464246FFF7AAFF084305D0DC
:10045000012004E020463946BDE8F08D0020054328
:1004600046EAE0762C4337430A986305E40AA0EB9A
:1004700008000022FD0A44EA47540A3002D5002051
:100480000146E9E7010510196941DDE90845001950
:100490006941BDE8F04DA2E7064C074D06E0E06873
:1004A00040F0010394E8070098471034AC42F6D3BB
:1004B000FFF76EFE6C2600088C26000810B50E4C67
:1004C00000224021204600F035FD00222021204658
:1004D00000F030FD4FF40454204600F035F842F2AD
:1004E000380000F031F84FF4404000F02DF820467D
:1004F000BDE8104000F028B8000002402DE9F041AE
:1005000004460D46274610EE100AFFF736FF9FED12
:100510000C1B53EC112BFFF798FEFFF715FFC0F3F0
:100520008D31C0F30D060C433E43284600F00CF815
:10053000304600F009F82046BDE8F04100F004B86C
:10054000F8BA40D813A20C4070B5184D06460024E6
:1005500001220421284600F0EDFC00220221284659
:1005600000F0E8FC300401D5012200E0002208215F
:10057000284600F0DFFC00220421284600F0DAFCC7
:10058000760001220421284600F0D4FC641CE4B269
:10059000102CE7D301220821284600F0CBFC284686
:1005A000BDE870400122022100F0C4BC00000240FE
:1005B000464910B54A6822F440324A604A684368A6
:1005C0001A434A6001684A6822F480724A600168EE
:1005D0004A68036942EA03224A6001684A6822F0D5
:1005E00040724A6001684A6883681A434A60016839
:1005F0008A6822F400628A6001688A68C3681A43C4
:100600008A60816A6FF07062D14201688A6822F064
:1006100070628A6001688A680CD0836A1A438A60B3
:1006200001688A6822F040528A6001688A68C36A59
:100630001A4301E022F040528A6001688A6822F081
:1006400002028A6001688A68037E42EA43028A6085
:1006500090F82010002901684A680FD042F4006227
:100660004A6001684A6822F460424A6001684A6848
:10067000174C436A04EB43331A4301E022F400624F
:100680004A600168CA6A22F47002CA620168CA6AD2
:10069000838B104C04EB03531A43CA6201688A68C7
:1006A00022F400728A6001688A6890F8303042EA69
:1006B00043228A6001688A6822F480628A60016845
:1006C0008A68406942EA8020886010BD00230140AA
:1006D00000E0FFFF0000F0FFFEE70000014800F02F
:1006E000F7B90000CC000020014800F0F1B900008B
:1006F0002C01002001681823CAB2103AB2FBF3F2B1
:10070000054B6FF30901032A9B5CC36500D9091DE2
:1007100081650846704700004C26000810B5014668
:1007200000208B698A6A4FF0C07453B1B3F5005F43
:1007300015D072B1012A0CD0022A0AD0032A09D19D
:1007400004E01AB1012A06D0022A03D1C96AC901FC
:1007500000D5012010BDC96AA142FAD010BD002AFF
:10076000F7D0012AF2D0022AF3D0032AF3D010BD29
:10077000704772B6FEE7000078B50024009490F848
:100780003C20012A19D0012280F83C200A68072366
:100790000568092A13D9EE680A3A02EB420293402F
:1007A0009E43EE600B788A680A3B03EB43039A4052
:1007B0000368DD682A43DA6010E0022078BD2E6904
:1007C00002EB420293409E432E610B788A6803EB52
:1007D00043039A4003681D692A431A614A681F232C
:1007E000072A13D205686E6B521E02EB82029340F9
:1007F0009E436E630B790A885B1E92B203EB830300
:100800009A4003685D6B2A435A6327E005680D2A06
:1008100012D22E6BD21F02EB820293409E432E63B4
:100820000B790A88DB1F92B203EB83039A400368BB
:100830001D6B2A431A6311E0EE6A0D3A02EB820245
:1008400093409E43EE620B790A880D3B92B203EB14
:1008500083039A400368DD6A2A43DA62164B05680F
:10086000144A9D4206D10D68122D03D1556845F4F6
:100870008005556005689D4218D10B68102B01D08A
:10088000112B13D1536843F40003536009681029F6
:100890000CD10A490A4A0968B1FBF2F101EB810166
:1008A000490000E0491E00910029FBD180F83C403E
:1008B000002078BD002301400020014034000020CA
:1008C00040420F0070B504004FF0000503D0206CCB
:1008D000002610B107E0012070BD204600F01CF892
:1008E000666484F83C60206CC00610D4206C20F450
:1008F000885040F0020020642046FFF759FE6664ED
:10090000206C20F0020040F00100206400E001258E
:1009100084F83C60284670BD2DE9F04F87B006464C
:1009200014216846FFF786FC3548344C1438336888
:1009300000253349032207154FF400684FF400598E
:100940004FF4807A4FF4403BA34227D10B6843F425
:1009500080730B60096801F480710591016841F0B2
:10096000010101600068694600F0010005908020E7
:100970008DE82500234800F0E5F9244C224804F1D5
:100980000C03C4E90005A56083E8A00F204665625A
:100990002DE0B463A66307B0BDE8F08F1C4CA34202
:1009A000F9D10B6843F400730B60096801F400711E
:1009B0000591016841F0020101600068694600F09C
:1009C0000200059001208DE82500124800F0BAF9D8
:1009D0000E4C0D486034303020604FF00070C4E998
:1009E000010504F10C03204683E8A00F656200F0C6
:1009F0003FF90028CDD0FFF7BCFECAE70020014038
:100A0000443802400000024010640240CC00002044
:100A100000210140000402402DE9F0410446876DA9
:100A200000F08EFA064694F835000025022806D01C
:100A30008020606584F834500120BDE8F081206892
:100A4000016821F0160101602068416921F08001F0
:100A50004161206C08B9A06C20B12068016821F0C8
:100A6000080101602068016821F0010101600CE0CB
:100A700000F066FA801B052807D920206065032056
:100A800084F8350084F83450D7E720680068C00740
:100A9000EED194F85C103F208840B860012084F8C3
:100AA000350084F834500020C7E790F8351002294B
:100AB00003D08021416501207047052180F8351061
:100AC0000068016821F0010101600020704700000A
:100AD0002DE9F84304464FF00009CDF80090634833
:100AE0004FF41651A56D0068B0FBF1F72E6894F82D
:100AF0005C10082000FA01F131420FD021680A6829
:100B000052070BD50A6822F004020A6094F85C10C0
:100B10008840A860606D40F00100606594F85C104A
:100B20004FF0010808FA01F0304208D02168496905
:100B3000090604D5A860606D40F00200606594F875
:100B40005C1004208840304208D021680968890779
:100B500004D5A860606D40F00400606594F85C10F6
:100B600010208840304218D021680968090714D540
:100B7000A86020680168490304D50068000308D50F
:100B8000A16C07E00168C90503D4016821F00801E0
:100B90000160216C09B12046884794F85C10202040
:100BA0008840304231D021680968C9062DD5A86037
:100BB00094F8350005282068016806D0490347D518
:100BC000006800031DD4616C1CE021F01601016077
:100BD0002068416921F080014161206C08B9A06C56
:100BE00020B12068016821F00801016094F85C10D0
:100BF0003F208840A86084F8358084F83490216DC7
:100C00001FE0E16B09B120468847606D00282BD0BA
:100C1000606DC00714D0052084F835002068016895
:100C200021F0010101600098401C0090B84203D8F7
:100C300020680068C007F6D184F8358084F83490C5
:100C4000E16C002910D001B02046BDE8F043084710
:100C50000168C905D5D4016821F01001016084F84C
:100C6000358084F83490CCE7BDE8F8833400002068
:100C70002DE9F041044600F063F906465CB102201C
:100C800084F83500002584F834502068016821F08C
:100C9000010101600DE00120BDE8F08100F050F994
:100CA000801B052805D920206065032084F83500C5
:100CB000F2E720680068C007F0D122681168204878
:100CC0000140D4E901031843D4E903363343184300
:100CD00063691843A3691843E3691843236A1843F7
:100CE0000843616A042903D1D4E90B13194308436B
:100CF000106020684069666A20F0070130460E43A4
:100D0000012704280CD1A06A0643E06A40B12046BE
:100D1000FFF704FD20B14020606584F83570BAE724
:100D2000206846612046FFF7E5FC94F85C203F21EF
:100D300091408160656584F835700020ACE7000063
:100D40003F8010F02DE9F84FDFF8BCA1002201250B
:100D500003264FF00F090AF1040BAAF1040E00BF9D
:100D60000B6805FA02F42340A34270D10F7907F013
:100D70000307012F01D0022F16D187684FEA4208DE
:100D800006FA08FC27EA0C07D1F80CC00CFA08FC9C
:100D90004CEA070CC0F808C04768A7430C79C4F3B5
:100DA000001494403C4344600C79E443A4070AD007
:100DB000C4684FEA420C06FA0CF7BC438F6807FA86
:100DC0000CF72743C7600C7904F00304022C12D1FE
:100DD000D40800EB840CDCF820405707FF0E09FA1A
:100DE00007F824EA0804D1F8108008FA07F848EA5E
:100DF0000408CCF8208004684FEA420C06FA0CF78D
:100E0000BC430F7907F0030707FA0CF72743076085
:100E10004C6814F4403F70D03C4C276847F480473E
:100E20002760246822F0030704F480440094384CBF
:100E300007EB040CDCF8084897074FEA177809FA23
:100E400008F7BC43334FB84202D1002724E054E0F6
:100E5000314FB84201D101271EE0304FB84201D1D5
:100E6000022719E02E4FB84201D1032714E02D4F7D
:100E7000B84201D104270FE02B4FB84201D105271A
:100E80000AE02A4FB84201D1062705E0284FB842B0
:100E900001D1072700E0082707FA08F72743CCF815
:100EA0000878DAF800405746D1F804C09C435FEA5E
:100EB000CC2C00D51C433C60DBF800405F46D1F8E9
:100EC00004C09C435FEA8C2C00D51C433C60DEF8D8
:100ED00000407746D1F804C09C435FEA8C3C00D5C3
:100EE0001C433C60084F083F3C68D1F804C09C4359
:100EF0005FEACC3C00D51C433C60521C102AFFF436
:100F00002FAFBDE8F88F0000083C01404438024094
:100F1000003001400000024000040240000802408E
:100F2000000C024000100240001402400018024071
:100F3000001C02400AB1816170470904FBE7000010
:100F4000014880687047000028000020024881683E
:100F50000278114481607047280000200B4810B5CA
:100F6000016841F400710160016841F48061016031
:100F7000016841F480710160032000F06FF80F20D8
:100F800000F006F800F024F8002010BD003C0240FC
:100F900070B50D4D04464FF47A712878B1FBF0F02E
:100FA0000A490968B1FBF0F000F00AFB48B9102CBF
:100FB00007D200222146501E00F030F800206C605D
:100FC00070BD012070BD000028000020340000200A
:100FD0000A4808B5016841F480410160006800F4E6
:100FE000804000900548001F016841F08051016079
:100FF000006800F08050009008BD000044380240B6
:10100000002809DB00F01F02012191404009800007
:1010100000F1E020C0F8001170470000F0B40E4B62
:101020001B680C46C3F30223C3F10705042D00D946
:101030000425191D072901D2002300E0DB1E01262B
:1010400006FA05F1491E214099409E40761E164041
:101050003143F0BC01F003B90CED00E0064900F0AB
:10106000070208684FF6FF03184040EA0220034ACF
:1010700010430860704700000CED00E00000FA0526
:101080002DE9F0470E46050065D0DFF81481D8F849
:101090000000F7B200F00700B04207D288F80070F5
:1010A000D8F8000000F00700B04254D128683D4C49
:1010B000810712D5400703D5206840F4E050206036
:1010C0002878000703D5206840F46040206020683D
:1010D000A96820F0F000084320602878C0072DD0D0
:1010E000304968680839012812D0022813D0032833
:1010F00011D00968890700292DDA216821F0030140
:1011000001432160FFF71CFF814641F2883A0EE05F
:1011100009688903EFE709688901ECE7FFF710FF29
:10112000A0EB0901514502D90320BDE8F0872068F2
:10113000696800F00C00B0EB810FEFD1D8F8001017
:10114000404601F00701B14207D90770006800F07E
:101150000700B04201D00120E7E72878400705D515
:101160002068E96820F4E0500843206028780007F0
:1011700006D52068296920F4604040EAC10020605B
:1011800000F038F82168084AC1F30311515CC840E7
:101190000649086006480068FFF7FAFE0020C4E729
:1011A000003C024008380240542600083400002069
:1011B0002C0000200448054900680968044AC1F36E
:1011C0008221515CC840704734000020083802403A
:1011D000642600080448054900680968044AC1F308
:1011E0004231515CC840704734000020083802404A
:1011F00064260008154810B5006810F00C02144869
:1012000013D04110042A0FD0082A0ED10F4C241FEE
:101210002268236802F03F025B0207D52068C0F312
:101220008810A0FB010106E0084610BD2168C1F34B
:101230008811A1FB00010023FEF7C4FF2168C1F360
:101240000141491C4900B0FBF1F010BD08380240D3
:101250000024F4002DE9F84F04006ED02078DFF868
:101260004C93C007A9F104054AD009F104000168B4
:10127000C1F38101012908D00068C0F38100022870
:101280000AD1D9F80000400206D52868800337D576
:1012900060680028E1D033E06068B0F5803F10D08E
:1012A000B0F5A02F286810D020F48030286028687E
:1012B00020F4802028606068A8B1FFF741FE064650
:1012C0000DE0286840F48030F4E740F48020286086
:1012D000F7E700BFFFF734FE801B642873D8286847
:1012E0008003F7D50CE0FFF72BFE064605E000BFB4
:1012F000FFF726FE801B6428F0D828688003F7D407
:101300002078DFF8AC8280074FF0000A3ED5A7486E
:10131000001D016811F00C0F08D00068C0F38100B7
:1013200002280BD1D9F80000400207D428688007B2
:1013300016D5E068012800D112E033E1E068B8B1C9
:101340000120C8F80000FFF7FBFD064605E000BFDE
:10135000FFF7F6FD801B0228C0D828688007F7D564
:101360002868216920F0F80040EAC10028600DE0FB
:10137000C8F800A0FFF7E4FD064604E0FFF7E0FD33
:10138000801B02281FD828688007F7D42078000720
:1013900022D5864F87486169703771B1012101609C
:1013A000FFF7CEFD064604E0FFF7CAFD801B0228CA
:1013B00009D838688007F7D50EE0C0F800A0FFF71D
:1013C000BFFD064605E082E0FFF7BAFD801B02285C
:1013D0007DD838688007F7D42078400768D5DFF8D3
:1013E000CCB100270BF13C0BDBF80000C0000BD4A4
:1013F000DBF8001041F08051CBF80010DBF8000062
:10140000012700F0805000906B4E3068C00510D46A
:10141000306840F480703060FFF792FD009005E086
:10142000FFF78EFD0099401A022850D83068C00599
:10143000F6D55E4EA0686C3601280FD005283068BE
:1014400010D020F001003060306820F004003060DF
:10145000A068B8B1FFF774FD00900FE0306840F06D
:101460000100F4E740F004003060F7E7FFF768FDA3
:101470000099411A41F28830814266D8306880076D
:10148000F4D50EE0FFF75CFD009007E0FFF758FD94
:101490000099411A41F28830814256D8306880075D
:1014A000F4D42FB1DBF8001021F08051CBF80010FC
:1014B000A069C8B33D49091D0968C1F3810102292A
:1014C0004AD00228504607D0C8F8600000E03CE04F
:1014D000FFF736FD04463BE04746C8F86000FFF7DB
:1014E0002FFD064605E000BFFFF72AFD801B0228FE
:1014F0002BD828688001F7D4D4E907010843A16AF2
:101500002E4A490802EB0141626A41EA821108430E
:1015100094F82C1040EA0161C9F8001001203866E7
:10152000FFF70EFD044606E03EE000BFFFF708FDB2
:10153000001B022809D828688001F7D534E000BFD5
:10154000FFF7FEFC001B022802D90320BDE8F88F3C
:1015500028688001F4D427E00128F7D0D9F80000EA
:10156000E26900F4800191421CD1226A00F03F013F
:10157000914217D147F6C071626A0140B1EB821FF8
:1015800010D1A26A4FF0FF3300F4403103EB520256
:10159000B1EB024F06D194F82C1000F07060B0EB64
:1015A000016F01D00120D1E70020CFE704380240CD
:1015B00000004742800E4742007000400000FFFFDD
:1015C00010B5401EB0F1807F01D3012010BD4FF057
:1015D000E02460610F21601700F041FE0020A0614F
:1015E00007202061002010BD70B590F83C20012A32
:1015F00032D0012480F83C40022280F83D2003686C
:101600005A689D6822F070060A6832435A60134B8C
:1016100002689A4214D0B2F1804F11D0104B9A4216
:101620000ED0104B9A420BD00F4B9A4208D00F4B62
:101630009A4205D00E4B9A4202D00E4B9A4204D1E8
:10164000496825F080031943916080F83D400021EE
:1016500080F83C10084670BD022070BD00000140BB
:101660000004004000080040000C0040000401405D
:10167000004001400018004010B5040003D094F869
:101680003D0010B107E0012010BD002084F83C00AF
:10169000204600F01FF8022084F83D00211D20683C
:1016A00000F008FC012084F8460084F83E0084F82D
:1016B0003F0084F8400084F8410084F8420084F838
:1016C000430084F8440084F8450084F83D0000207D
:1016D00010BD000008B50068B0F1804F08D1054882
:1016E000016841F001010160006800F00100009014
:1016F00008BD00004038024070B5044690F83C0038
:101700000025012817D0012684F83C60022084F8C7
:101710003D002068826822F0770222F47F428260D6
:101720000868502838D00DDC20284FD005DC90B355
:10173000102811D14AE0022070BD302846D0402840
:101740000AD13BE060282FD070280DD0B0F5805F23
:1017500003D0B0F5005F12D0012584F83D60002071
:1017600084F83C00284670BDCB68D1E9012120688F
:1017700000F008FC2068816841F0770109E0CB683F
:10178000D1E90121206800F0FDFB2068816841F467
:1017900080418160E1E719E0CA684968206800F08B
:1017A00003FC5021206806E0CA684968206800F000
:1017B0000CFC6021206800F0EFFBCEE7CA684968A6
:1017C000206800F0F1FB40212068F4E72268014620
:1017D0001046F0E770477047F8B50168044608689E
:1017E000CA684B6910F00F0F4FF0000559D003F095
:1017F000010602F49077374365D0C10705D0D105C3
:1018000003D5616C41F001016164410705D5D90739
:1018100003D0616C41F002016164810705D5D907ED
:1018200003D0616C41F004016164010707D502F047
:101830002001314303D0616C41F008016164616CA7
:1018400000293AD0800604D5900602D5204600F043
:10185000FCFB20684069616CC0F38010090700D46C
:1018600060B3204600F0CAFB20684069400621D5DD
:101870002068143050E8001F21F0400140E80012B9
:10188000002AF5D1E06BA8B172490165E06BFFF762
:101890000CF9002811D0E06B016D01B0BDE8F040FB
:1018A000084783060FD593060DD52046BDE8F840BE
:1018B00000F0CBBB2046FFF78EFFF8BD2046FFF7B8
:1018C0008AFF6564F8BD266B2023012E7ED1C606F3
:1018D0007CD5D6067AD508684868009048694FF0EC
:1018E000020640064DD5E26B106840684FF48077E1
:1018F0000004000C3AD0A18D814237D9E085D0692F
:10190000B8422DD020680C3050E8001F21F48071BF
:1019100040E80012002AF5D12068143050E8001F7A
:1019200021F0010140E80012002AF5D120681430AE
:1019300050E8001F21F0400140E80012002AF5D1D4
:1019400084F84230256320680C3050E8001F21F0F5
:10195000100140E80012002AF5D1E06BFFF75CF8B7
:101960006663A08DE18D401A81B206E0A18D8142AF
:10197000A8D1D069B842A5D166632046FFF72AFFF7
:10198000F8BDA08DE18D401A81B2E08D0028F7D01E
:101990000029F5D020680C3050E8002F22F4907216
:1019A00040E80027002FF5D12068143050E8002FC0
:1019B00022F0010240E80027002FF5D184F84230E0
:1019C000256320680C3050E8002F00E006E022F08C
:1019D000100240E80023002BF3D1CDE705062BD5FC
:1019E000150629D594F841002128C9D1A068B0F581
:1019F000805F01D12069B0B1206A411C2162216859
:101A000000784860E08C401E0004000CE084B7D1F0
:101A10002068C16821F08001C1602068C16841F080
:101A20004001C160F8BD206A0088C0F3080048602A
:101A3000206A801C2062E5E74006F3D55006F1D508
:101A4000CA68204622F04002CA6084F8413000F0A3
:101A500095F8F8BDEF1F000870B5040004D094F8A5
:101A60004100002510B106E0012070BD84F840500F
:101A7000204600F023F8242084F841002068C16843
:101A800021F40051C160204600F040FB206801694C
:101A900021F4904101612068416921F02A014161EE
:101AA0002068C16841F40051C1606564202084F859
:101AB000410084F842006563002070BD10B586B017
:101AC000044614216846FEF7B5FB18492068884291
:101AD00029D117480021026842F480220260006880
:101AE00000F48020059012481038026842F002028B
:101AF0000260006800F0020005904FF44060009022
:101B00000220CDE9010103200390072004906946DB
:101B10000848FFF717F9002211462720FFF77EFA41
:101B20002720FFF76DFA06B010BD00000048004006
:101B3000403802400004024090F84230202B01D08F
:101B40000220704721B11AB10023036300F064BB87
:101B50000120704700680649884207D105490120E5
:101B600048700246C91C0448FFF7E6BF70470000F2
:101B70000048004000000020D40100207047FEE72C
:101B80001FB500211648009101910291134A03915B
:101B9000C0E9002181600161017680F820104FF0DA
:101BA0008052C26201244FF0C062C4618262C1608F
:101BB00080F830404161FEF785FE08B1FEF7D9FD9F
:101BC0000720CDE900040320029069460448FEF78F
:101BD000D3FD002801D0FEF7CCFD1FBD0020014041
:101BE0003C0000201FB50021164800910191029190
:101BF000134A0391C0E9002181600161017680F8F8
:101C000020101205C26201244FF0C062C4618262DA
:101C1000C16080F830404461FEF754FE08B1FEF721
:101C2000A8FD0820CDE9000403200290694605487C
:101C3000FEF7A2FD002801D0FEF79BFD1FBD0000AE
:101C400000210140840000200D4808B5016841F4DE
:101C5000800101600068002200F4800000901146BD
:101C60003820FFF7DBF93820FFF7CAF900221146C8
:101C70003A20FFF7D3F9BDE808403A20FFF7C0B992
:101C8000303802402DE9F04387B014216846FEF752
:101C9000D1FA31480024016841F0800101600168F7
:101CA00001F080010591016841F0010101600168C6
:101CB00001F001010591016841F002010160016834
:101CC00001F002010591016841F004010160006822
:101CD000DFF8889000F004000590002249F67E713C
:101CE0004846FFF727F91E4F43F2F8060022314617
:101CF0003846FFF71FF9DFF86C800122402140468B
:101D0000FFF718F97E200125CDE900050220CDE975
:101D1000024069464846FFF715F80096CDE90154A0
:101D2000694638460394FFF70DF840200090CDE94E
:101D30000154694640460394FFF704F84FF41F40EE
:101D40000090CDE90154694648460394FEF7FAFF36
:101D500007B0BDE8F08300003038024000000240C8
:101D6000000402400008024010B586B00021164869
:101D7000009101910291039104914FF080420591ED
:101D800002600722C0E9012180248461C0E90321A7
:101D9000FFF772FC08B1FEF7ECFC4FF480500090A6
:101DA00069460948FFF7A8FC08B1FEF7E2FC2020CD
:101DB000CDE9040404A90448FFF716FC002801D06B
:101DC000FEF7D7FC06B010BD8C0100200C4810B502
:101DD0000A4901604FF416514160002181600C22D4
:101DE000C160C0E904128161C161FFF735FE0028BE
:101DF00003D0BDE81040FEF7BCBC10BD0048004059
:101E0000D4010020FEE7FEE770477047FFF79EB859
:101E100030B593B030216846FEF70CFA14210CA8B7
:101E2000FEF708FA1D480025016841F08051016065
:101E3000006800F0805011901948016841F4804119
:101E400001600068022400F480401190012000909D
:101E5000000401908001CDE9064008AA04208021F9
:101E600082E813000B906846FFF7F4F908B172B6E8
:101E7000FEE70CA90F2081E831004FF4A0500F902D
:101E80004FF48050109004210CA8FFF7F9F80028B7
:101E900001D072B6FEE713B030BD000040380240FA
:101EA000007000400248016841F470010160704711
:101EB00088ED00E0F0B50268274B284D284E294FE9
:101EC000294C4FF0804C984209D0604507D0A84279
:101ED00005D0B04203D0B84201D0A04204D122F0D4
:101EE000700E4A6842EA0E0298421BD0604519D033
:101EF000A84217D0B04215D0B84213D0A04211D09A
:101F00001A4DA8420ED01A4DA8420BD0194DA84226
:101F100008D0194DA84205D0184DA84202D0184D3E
:101F2000A84203D122F44075CA682A434D6922F0C1
:101F300080022A438D68C5620D688562984201D08F
:101F4000A04201D109690163016841F00401016007
:101F5000012141610260F0BD000001400004004029
:101F600000080040000C0040000401400040014017
:101F7000004401400048014000180040001C00409F
:101F80000020004010B5846842EA032224F47F4414
:101F90000A432243826010BD826822F070020A4325
:101FA00042F007018160704710B5036A046A24F0AB
:101FB00001040462846924F0F00444EA021423F06A
:101FC0000A020A438461026210BD10B5036A046A02
:101FD00024F010040462846923F0A00324F4704404
:101FE00044EA023243EA01118261016210BD10B578
:101FF000806B0021C185FFF7EEFB10BD01680C313D
:1020000051E8002F22F4907241E80023002BF5D113
:102010000168143151E8002F22F0010241E8002349
:10202000002BF5D1016B012909D101680C3151E870
:10203000002F22F0100241E80023002BF5D12021CF
:1020400080F8421000210163704708B590F84210F3
:10205000222901D0022008BD82684FF480539A42A1
:1020600001D1016921B1816A9A421BD04AB10AE0CB
:102070000268816A5268C2F308020A80816A891C78
:1020800008E0026972B10268526802F07F020A70C9
:10209000816A491C8162C18D491E0904090CC185F0
:1020A00003D01BE002685268F1E70168CA6822F0B9
:1020B0002002CA600168CA6822F48072CA6001689E
:1020C0004A6922F001024A61202180F84210002171
:1020D0004163026B012A03D0FFF73CFD002008BDDD
:1020E000016301680C3151E8002F22F0100241E831
:1020F0000023002BF5D101680A68D20602D50A68D0
:1021000049680091818DFFF765FBE7E770B50446EC
:1021100000680169E26821F44051114301612169BD
:10212000A068E26908436169114308432168CA68ED
:1021300049F20C639A430243CA6020684169A2696C
:1021400021F440711143416131492068884202D035
:102150003049884202D1FFF73DF801E0FFF72AF845
:10216000E2690023192164253226B2F5004F626826
:1021700028D0A0FB0101930F9200FEF723F801463F
:10218000B0FBF5F06FF01802504301EB800006EB56
:102190000010B0FBF5F000F0F002B1FBF5F002EB3F
:1021A0000012B1FBF5F06FF01803584301EB80000B
:1021B00006EB0010B0FBF5F000F00F0021681044B2
:1021C000886070BDA0FB010192185B41FDF7FAFF2A
:1021D0000146B0FBF5F00201B1FBF5F06FF018031A
:1021E000584301EB800006EBC000B0FBF5F000F0B7
:1021F000F80002EB4002B1FBF5F0584301EB800020
:1022000006EBC000B0FBF5F000F00700D6E70000D9
:10221000001001400014014081628285C2850021C6
:102220004164222180F84210016921B10168CA6825
:1022300042F48072CA6001684A6942F001024A6150
:102240000068C16841F02001C160002070470000B3
:102250000148FFF7C1BA0000D4010020FEE70907DA
:10226000090E002804DB00F1E02080F8001470471C
:1022700000F00F0000F1E02080F8141D704702E02C
:1022800008C8121F08C1002AFAD170477047002001
:1022900001E001C1121F002AFBD1704700EB400092
:1022A0008000401EFDD2704738B523A00068009022
:1022B00000F046F800F0AAF801236A460321184608
:1022C00000F0DCF8022101231C4A084600F0D6F891
:1022D0004FF47A742146102000F03CF9214620206A
:1022E00000F038F92146402000F034F921468020E2
:1022F00000F030F90021102000F058F900212020D2
:1023000000F054F90021402000F050F90021802015
:1023100000F04CF9FF21102000F096F8FF2120205A
:1023200000F092F8FF21402000F08EF8FF2180207D
:1023300000F08AF838BD0000D0000000380000200E
:1023400070B5214C00224FF400512046FEF7F2FDFB
:102350001E4D012211022846FEF7ECFD00226115F8
:102360002846FEF7E7FD002221152846FEF7E2FD8C
:102370000022E1142846FEF7DDFD0022A1142846C4
:10238000FEF7D8FD00224FF400412846FEF7D2FDAB
:10239000002208212046FEF7CDFD00221021204614
:1023A000FEF7C8FD002220212046FEF7C3FD0022D3
:1023B00040212046FEF7BEFD2046BDE870400022C9
:1023C0008021FEF7B7BD000000040240000002407B
:1023D00070B50D4D4FF48064002221462846FEF76B
:1023E000A9FD0220FFF75AFF012221462846FEF7E9
:1023F000A1FD0420FFF752FF21462846BDE87040AA
:102400000022FEF797BD00000000024070B50D4DA0
:102410004FF48054002221462846FEF78BFD012010
:10242000FFF73CFF012221462846FEF783FD1E20D0
:10243000FFF734FF21462846BDE870400022FEF732
:1024400079BD0000000402401CB5002200928DF806
:10245000040010208DF8021040EA11208DF80100D0
:10246000012301AA1946002000F008F801236A465A
:102470000321062000F002F81CBD00002DE9FF5FDB
:10248000324D8946044600264FF400779B4632467B
:1024900039462846FEF74EFD0022A9152846FEF7CC
:1024A00049FDDFF8ACA0002239462846FEF742FD80
:1024B000200601D5012200E0002210215046FEF73F
:1024C00039FD012239462846FEF734FD6006761CA8
:1024D000040EF6B2082EE6D3002239462846FEF74F
:1024E00029FD0024A84622E002980025065D00226E
:1024F00039464046FEF71EFD300601D5012200E0B8
:10250000002210215046FEF715FD012239464046B3
:10251000FEF710FD70066D1C060EEDB2082DE6D319
:10252000002239464046FEF705FD641CE4B24C45E6
:10253000DAD3BBF1000F01D0FFF74AFF04B04046E9
:10254000BDE8F05F01221102FEF7F4BC000002407A
:10255000000402401CB500228DF8040000920846D9
:10256000FDF7E5FE9FED0F1B53EC112BFDF76DFE04
:10257000FDF7EAFE8DF80300010A8DF80210010C48
:102580008DF80110000E8DF80000012301AA1946F4
:102590000020FFF773FF042101236A460846FFF776
:1025A0006DFF1CBD95D626E80B2E214008B50123F2
:1025B0008DF8000007486A464170090A0170194603
:1025C0000020FFF75BFF0123024A02210520FFF7ED
:1025D00055FF08BD3A000020FEF7C0FCFFF718FCCD
:1025E000FFF750FBFFF730FBFFF7F0FBFFF7C8FAF0
:1025F000FFF7F8FAFFF7B8FBFFF756FE42F2107448
:1026000021461020FFF7A6FF21462020FFF7A2FF5A
:102610004FF4C87421461020FFF716FF21462020F2
:10262000FFF712FF00211020FFF7C0FF002120203C
:10263000FFF7BCFFFDF742FF00219FED030A4FF4B7
:102640008040FDF75BFFFEE700401C4600061016C9
:102650000006101600000000000000000102030444
:102660000607080900000000010203048C26000888
:10267000000000203C0000007E220008C826000860
:102680003C000020E40500008E220008000000004D
:102690000000000000000000D40100200000000045
:1026A000000000000000000000000000000000002A
:1026B0000000000001000000100000000000000009
:0826C0000024F40020000000DA
:040000050800018965
:00000001FF
