:020000040800F2
:10000000E80400209D010008171B0008D319000810
:10001000151B000859070008691F000800000000B0
:100020000000000000000000000000001B1B000892
:100030005B07000800000000191B00081D1B0008DA
:10004000B7010008B7010008B7010008B7010008B0
:10005000B7010008B7010008B7010008B7010008A0
:10006000B7010008B7010008B7010008B701000890
:10007000B7010008B7010008B7010008B701000880
:10008000B7010008B7010008B7010008B701000870
:10009000B7010008B7010008B7010008B701000860
:1000A000B7010008B7010008B7010008B701000850
:1000B000D11B0008B7010008B7010008B70100080C
:1000C000B7010008B7010008B7010008B701000830
:1000D000B7010008B7010008B70100085D1F00085C
:1000E000B7010008B7010008B7010008B701000810
:1000F000B7010008B7010008B7010008B701000800
:10010000B7010008B7010008B7010008B7010008EF
:10011000B7010008B7010008B7010008B7010008DF
:10012000B7010008B7010008B7010008B7010008CF
:10013000B7010008B7010008B7010008B7010008BF
:10014000B7010008B7010008B7010008B7010008AF
:10015000B7010008B7010008B7010008B70100089F
:10016000B7010008B7010008B7010008B70100088F
:10017000B7010008B7010008B7010008000000003F
:10018000B7010008B7010008DFF80CD000F03EFA14
:100190000048004739210008E8040020064880474D
:1001A00006480047FEE7FEE7FEE7FEE7FEE7FEE75C
:1001B000FEE7FEE7FEE7FEE7B51B00088901000841
:1001C0002DE9F05F0546002092469B46884606468C
:1001D000814640241BE0284641464746224600F01F
:1001E00096F953465A46C01A914110D31146184603
:1001F000224600F07DF92D1A67EB01084F46224692
:100200000120002100F074F917EB00094E41201E77
:10021000A4F10104DFDC484631462A464346BDE8E6
:10022000F09FD2B201E000F8012B491EFBD27047CB
:100230000022F6E710B513460A4604461946FFF7B2
:10024000F0FF204610BD2DE9FE4F804681EA0300F5
:10025000C00F0C46009021F0004123F00045B8EBA0
:100260000200A94105D24046214690461C460B4655
:10027000024623F00040104347D0270DC7F30A0081
:10028000C3F30A510290401A019040286BDAC3F37D
:10029000130040F4801B0098924620B10023D2EB5B
:1002A000030A63EB0B0B01985946C0F1400250461C
:1002B00000F01EF906460D4650465946019A00F0D8
:1002C00036F910EB08006141002487EA115284EAF4
:1002D000E7731A4340D0009A62B3019A012A4FEAA9
:1002E000075215DC001B61EB02014FF0004202EAED
:1002F0000752CDE90042001C41F5801132462B46E1
:1003000000F036F903B0BDE8F08F40462146F9E72A
:10031000001B61EB0201001C41F5801300185B41DA
:100320002018A2F5001747EB030140EAD570B61973
:100330006D4111E06D084FEA360645EAC0754FEA97
:100340000752001B61EB0201001C41F580114908B6
:100350004FEA30000019514132462B4603B0BDE848
:10036000F04F00F0F6B80098012240000023D0EBD7
:10037000020263EBE073009821464FEAE074B8EBA9
:10038000000061EB0401E9E783F000435BE781F0E3
:10039000004158E72DE9FE4F81EA030404F00044D0
:1003A00021F0004100944FF0000B23F0004350EA8D
:1003B00001045ED052EA03045BD0C3F30A54C1F3D4
:1003C0000A552C44A4F2F3340194A0FB0254C1F367
:1003D000130141F48011C3F3130343F4801301FBB1
:1003E000024400FB034E840A970A44EA815447EA18
:1003F0008357A4FB076802958D0A05FB07854FEA22
:10040000932C04FB0C542705029D4FEA065847EA3B
:100410001637B5EB08056EEB070C870E920E47EA10
:10042000811742EA8312A7FB0201B6EB0B0164EBD2
:1004300000042B0D43EA0C335E1844EB1C50DA46E3
:100440005146E7FB0201C5F313044FEA0B3343EABD
:1004500014534FEA0432019C43EA0603A4F10C044E
:100460000294009CCDE900B400F082F803B0BDE82E
:10047000F08F00200146F9E70EB540F233410291BA
:100480000021CDE900110A460B4600F071F803B0D7
:1004900000BDC1F30A5210B5C1F3130140F2FF339E
:1004A00041F480119A4201DA002010BD40F233433A
:1004B0009A42A2F2334203DC524200F028F810BD07
:1004C000904010BD30B50B4601460020202201248B
:1004D00009E021FA02F59D4205D303FA02F5491B12
:1004E00004FA02F52844151EA2F10102F1DC30BD28
:1004F000202A04DB203A00FA02F1002070479140E4
:10050000C2F1200320FA03F3194390407047202AD8
:1005100004DB203A21FA02F00021704721FA02F3AD
:10052000D040C2F120029140084319467047202A6A
:1005300006DBCB17203A41FA02F043EAE07306E00B
:1005400041FA02F3D040C2F120029140084319461B
:10055000704710B5141E73F1000408DA401C41F115
:10056000000192185B411A4301D120F0010010BD37
:100570002DE9F04D92469B4611B1B1FA81F202E0AD
:10058000B0FA80F220329046FFF7B2FF04460F46E1
:1005900040EA0A0041EA0B0153465A46084313D089
:1005A000114653EA010019D0C8F140025046FFF746
:1005B000AEFF05460E46504659464246FFF798FFA5
:1005C000084305D0012004E020463946BDE8F08DFF
:1005D0000020054346EAE0762C4337430A9863053A
:1005E000E40AA0EB08000022FD0A44EA47540A305E
:1005F00002D500200146E9E7010510196941DDE94E
:10060000084500196941BDE8F04DA2E7064C074DC9
:1006100006E0E06840F0010394E8070098471034D2
:10062000AC42F6D3FFF7B4FD0422000824220008F0
:10063000464910B54A6822F440324A604A68436825
:100640001A434A6001684A6822F480724A6001686D
:100650004A68036942EA03224A6001684A6822F054
:1006600040724A6001684A6883681A434A600168B8
:100670008A6822F400628A6001688A68C3681A4343
:100680008A60816A6FF07062D14201688A6822F0E4
:1006900070628A6001688A680CD0836A1A438A6033
:1006A00001688A6822F040528A6001688A68C36AD9
:1006B0001A4301E022F040528A6001688A6822F001
:1006C00002028A6001688A68037E42EA43028A6005
:1006D00090F82010002901684A680FD042F40062A7
:1006E0004A6001684A6822F460424A6001684A68C8
:1006F000174C436A04EB43331A4301E022F40062CF
:100700004A600168CA6A22F47002CA620168CA6A51
:10071000838B104C04EB03531A43CA6201688A6846
:1007200022F400728A6001688A6890F8303042EAE8
:1007300043228A6001688A6822F480628A600168C4
:100740008A68406942EA8020886010BD0023014029
:1007500000E0FFFF0000F0FFFEE7704772B6FEE723
:1007600010B5094800F06AF90A21074800F014F9A9
:1007700020B9054800F0B2F804494880BDE81040AF
:10078000014800F0D1B90000200000200000002046
:1007900078B50024009490F83C20012A19D0012259
:1007A00080F83C200A6807230568092A13D9EE68F7
:1007B0000A3A02EB420293409E43EE600B788A684D
:1007C0000A3B03EB43039A400368DD682A43DA607F
:1007D00010E0022078BD2E6902EB420293409E4356
:1007E0002E610B788A6803EB43039A4003681D6906
:1007F0002A431A614A681F23072A13D205686E6BC1
:10080000521E02EB820293409E436E630B790A886C
:100810005B1E92B203EB83039A4003685D6B2A432D
:100820005A6327E005680D2A12D22E6BD21F02EB05
:10083000820293409E432E630B790A88DB1F92B29B
:1008400003EB83039A4003681D6B2A431A6311E08C
:10085000EE6A0D3A02EB820293409E43EE620B7900
:100860000A880D3B92B203EB83039A400368DD6A6A
:100870002A43DA62164B0568144A9D4206D10D6878
:10088000122D03D1556845F48005556005689D42D9
:1008900018D10B68102B01D0112B13D1536843F4DE
:1008A00000035360096810290CD10A490A4A0968F3
:1008B000B1FBF2F101EB8101490000E0491E00911A
:1008C0000029FBD180F83C40002078BD0023014086
:1008D000002001401800002040420F000068C06C5A
:1008E000704770B504004FF0000503D0206C00265F
:1008F00010B107E0012070BD204600F01DF86664CD
:1009000084F83C60206CC00610D4206C20F4885021
:1009100040F0020020642046FFF78AFE6664206CE7
:1009200020F0020040F00100206400E0012584F87E
:100930003C60284670BD000010B586B00446142106
:100940006846FFF775FC1149206888421CD11048A1
:100950000021026842F480720260006800F4807036
:1009600005900B481438026842F0010202600068EA
:1009700000F001000590022000900320CDE9010164
:100980006946044800F012F906B010BD002001408D
:1009900044380240000002402DE9F041044600685E
:1009A0000D4681684FF0000749050BD58068C005EA
:1009B00008D5206C40F02000206484F83C700120B1
:1009C000BDE8F08100F0CEF906460FE0681C0DD0BE
:1009D00025B100F0C7F9801BA84207D9206C40F070
:1009E0000400206484F83C700320E9E72068006874
:1009F0008007EBD521686FF012000860206C40F48E
:100A0000007020642068816811F0405F13D1217E5E
:100A100089B9C16A11F4700F02D0806840050AD408
:100A2000206C20F480702064206CC00403D4206CFF
:100A300040F0010020640020C2E7000018B500214A
:100A4000009190F83C20012A07D0012280F83C2038
:100A500002689368DB0702D011E0022018BD93689A
:100A600043F0010393602A4A2A4B1268B2FBF3F267
:100A700002EB420200E0521E0092002AFBD1026803
:100A80009368DB0741D0036C40F20164A34343F455
:100A90008073036453685B0505D5036C23F400532E
:100AA00043F480530364036CDB0404D5436C23F0EC
:100AB0000603436400E0416480F83C1016496FF07F
:100AC0002203136049680068CA06144906D08842A8
:100AD0001BD1816811F0405F13D016E08842F8D036
:100AE0000F4A904203D1D1F80423D206F1D00D4A27
:100AF00090420AD1D1F8041301F01F011029E8D364
:100B000003E0816841F080418160002018BD000051
:100B10001800002040420F00002301400020014047
:100B2000002101400022014090F83C1001290CD026
:100B3000012180F83C1001688A6822F001028A6075
:100B400001688968C90702D007E002207047016C7C
:100B500021F4885141F001010164002180F83C102A
:100B60000846704790F83510022903D0802141656E
:100B700001207047052180F835100068016821F0D8
:100B8000010101600020704770B5044600F0EAF8EA
:100B90000546601C02D004480078044400F0E2F8E6
:100BA000401BA042FAD370BD0C0000202DE9F84F85
:100BB00000224FF0010803254FF00F0E0B6808FAD2
:100BC00002F42340A3426ED14E68012E05D0022EBE
:100BD00003D0112E01D0122E12D186684FEA420C9A
:100BE00005FA0CF7BE43CF6807FA0CF73743876066
:100BF0004668A6430C79C4F300149440344344601F
:100C0000C668570005FA07FC8C6826EA0C06BC404B
:100C10003443C4604C68022C01D0122C13D1D40888
:100C200000EB8404A346D4F8209054074FEAD46A1A
:100C30000EFA0AF629EA06090E6906FA0AF646EAE3
:100C40000906CBF8206006680C7926EA0C0604F049
:100C50000304BC40344304604C68E40065D5364C62
:100C6000266846F480462660246822F0030604F4D1
:100C700080440094314C3444A446D4F80848960784
:100C8000370F0EFA07F6B4432D4EB04201D10026BD
:100C900024E02C4EB04201D101261FE02A4EB04282
:100CA00002D102261AE040E0284EB04201D10326CC
:100CB00014E0274EB04201D104260FE0254EB04289
:100CC00001D105260AE0244EB04201D1062605E0F6
:100CD000224EB04201D1072600E00826BE4026433E
:100CE000CCF808681E4E34684F689C43FF0300D55B
:100CF0001C4334601A4C241D26684F689E43BF0372
:100D000000D51E432660164E083634684F689C4353
:100D1000FF0200D51C433460114E0C3634684F6816
:100D20009C43BF0200D51C433460521C102AFFF4C0
:100D300045AFBDE8F88F0000443802400030014064
:100D4000000002400004024000080240000C024083
:100D5000001002400014024000180240001C024033
:100D6000003C014001488068704700000C000020F2
:100D70000248816802781144816070470C000020AD
:100D80000B4810B5016841F400710160016841F43D
:100D900080610160016841F480710160032000F00E
:100DA0006FF8002000F006F800F024F8002010BDD5
:100DB000003C024070B50D4D04464FF47A7128781E
:100DC000B1FBF0F00A490968B1FBF0F000F002FB5A
:100DD00048B9102C07D200222146501E00F030F8EE
:100DE00000206C6070BD012070BD00000C00002070
:100DF000180000200A4808B5016841F480410160EC
:100E0000006800F4804000900548001F016841F030
:100E100080510160006800F08050009008BD000023
:100E200044380240002809DB00F01F0201219140F4
:100E30004009800000F1E020C0F800117047000078
:100E4000F0B40E4B1B680C46C3F30223C3F1070535
:100E5000042D00D90425191D072901D2002300E023
:100E6000DB1E012606FA05F1491E214099409E40ED
:100E7000761E16403143F0BC01F088B80CED00E05E
:100E8000064900F0070208684FF6FF03184040EAE1
:100E90000220034A10430860704700000CED00E098
:100EA0000000FA052DE9F0470E46050065D0DFF891
:100EB0001481D8F80000F7B200F00F00B04207D25A
:100EC00088F80070D8F8000000F00F00B04254D14C
:100ED00028683D4C810712D5400703D5206840F4AF
:100EE000E05020602878000703D5206840F4604077
:100EF00020602068A96820F0F0000843206028786E
:100F0000C0072DD0304968680839012812D002285E
:100F100013D0032811D00968890700292DDA216828
:100F200021F0030101432160FFF71CFF814641F2DC
:100F3000883A0EE009688903EFE709688901ECE760
:100F4000FFF710FFA0EB0901514502D90320BDE8CE
:100F5000F0872068696800F00C00B0EB810FEFD1DA
:100F6000D8F80010404601F00F01B14207D90770D0
:100F7000006800F00F00B04201D00120E7E72878B8
:100F8000400705D52068E96820F4E0500843206058
:100F90002878000706D52068296920F4604040EAD7
:100FA000C100206000F038F82168084AC1F303113D
:100FB000515CC8400649086006480068FFF7FAFE21
:100FC0000020C4E7003C024008380240EC21000841
:100FD0001800002010000020044805490068096836
:100FE000044AC1F38221515CC840704718000020B8
:100FF00008380240FC2100080448054900680968D7
:10100000044AC1F34231515CC840704718000020C7
:1010100008380240FC210008154810B5006810F09F
:101020000C02144813D04110042A0FD0082A0ED104
:101030000F4C241F2268236802F03F025B0207D591
:101040002068C0F38810A0FB010106E0084610BD2F
:101050002168C1F38811A1FB00010023FFF7B0F85C
:101060002168C1F30141491C4900B0FBF1F010BDFA
:10107000083802400024F4002DE9F84F04006ED037
:101080002078DFF83C93C007A9F104054AD009F1A4
:1010900004000168C1F38101012908D00068C0F390
:1010A000810002280AD1D9F80000400206D528683C
:1010B000800337D560680028E1D033E06068B0F580
:1010C000803F10D0B0F5A02F286810D020F48030D9
:1010D0002860286820F4802028606068A8B1FFF7A5
:1010E00041FE06460DE0286840F48030F4E740F405
:1010F00080202860F7E700BFFFF734FE801B6428DC
:1011000073D828688003F7D50CE0FFF72BFE06465E
:1011100005E000BFFFF726FE801B6428F0D8286892
:101120008003F7D42078DFF89C8280074FF0000A14
:101130003ED5A348001D016811F00C0F08D00068CF
:10114000C0F3810002280BD1D9F80000400207D477
:101150002868800716D5E068012800D112E02BE14D
:10116000E068B8B10120C8F80000FFF7FBFD0646B3
:1011700005E000BFFFF7F6FD801B0228C0D82868F5
:101180008007F7D52868216920F0F80040EAC100FF
:1011900028600DE0C8F800A0FFF7E4FD064604E073
:1011A000FFF7E0FD801B02281FD828688007F7D4CE
:1011B0002078000722D5824E83486169703671B16C
:1011C00001210160FFF7CEFD074604E0FFF7CAFDED
:1011D000C01B022809D830688007F7D50EE0C0F898
:1011E00000A0FFF7BFFD074605E082E0FFF7BAFD6C
:1011F000C01B02287DD830688007F7D420784007CC
:1012000068D5DFF8BCB100270BF13C0BDBF8000020
:10121000C0000BD4DBF8001041F08051CBF8001077
:10122000DBF80000012700F080500090674E306826
:10123000C00510D4306840F480703060FFF792FD34
:10124000009005E0FFF78EFD0099401A022850D863
:101250003068C005F6D55A4EA0686C3601280FD00C
:101260000528306810D020F001003060306820F090
:1012700004003060A068B8B1FFF774FD00900FE083
:10128000306840F00100F4E740F004003060F7E718
:10129000FFF768FD0099411A41F28830814266D813
:1012A00030688007F4D50EE0FFF75CFD009007E0A2
:1012B000FFF758FD0099411A41F28830814256D813
:1012C00030688007F4D42FB1DBF8001021F0805192
:1012D000CBF80010A069C8B33949091D0968C1F3EA
:1012E000810102294AD00228504607D0C8F8600080
:1012F00000E03CE0FFF736FD04463BE04746C8F817
:101300006000FFF72FFD064605E000BFFFF72AFD4E
:10131000801B02282BD828688001F7D4D4E9070164
:101320000843A16A2A4A490802EB0141626A41EA7C
:101330008211084394F82C1040EA0161C9F80010AA
:1013400001203866FFF70EFD044606E036E000BFD8
:10135000FFF708FD001B022809D828688001F7D58F
:101360002CE000BFFFF7FEFC001B022802D903207F
:10137000BDE8F88F28688001F4D41FE00128F7D079
:10138000D9F80000E26900F48001914214D1226A88
:1013900000F03F0191420FD147F6C071626A0140EF
:1013A000914209D1A26A00F44031914204D1E16A2C
:1013B00000F07060884201D00120D9E70020D7E713
:1013C0000438024000004742800E4742007000404F
:1013D0000000FFFF10B5401EB0F1807F01D3012057
:1013E00010BD4FF0E02460610F21601700F0CEFDCA
:1013F0000020A06107202061002010BD70477047C9
:1014000070B590F83C20012A32D0012480F83C408D
:10141000022280F83D2003685A689D6822F0700619
:101420000A6832435A60134B02689A4214D0B2F1F0
:10143000804F11D0104B9A420ED0104B9A420BD0D5
:101440000F4B9A4208D00F4B9A4205D00E4B9A424E
:1014500002D00E4B9A4204D1496825F0800319430B
:10146000916080F83D40002180F83C10084670BD36
:10147000022070BD00000140000400400008004050
:10148000000C0040000401400040014000180040F2
:1014900010B5040003D094F83D0010B107E001201E
:1014A00010BD002084F83C00204600F00DF802201A
:1014B00084F83D00211D206800F090FB012084F895
:1014C0003D00002010BD000008B50068B0F1804F5D
:1014D00012D10A48016841F0010101600068002250
:1014E00000F00100009011461C20FFF7A9FCBDE8A8
:1014F00008401C20FFF796BC08BD000040380240A1
:1015000070B5044690F83C00012817D0012584F8F6
:101510003C50022084F83D002068826822F0770267
:1015200022F47F4282600868502830D00DDC2028E9
:101530004DD005DC98B310283BD148E0022070BDA7
:10154000302844D0402834D139E0602828D0702891
:1015500006D0B0F5805F2CD0B0F5005F29D10AE04D
:10156000CB68D1E90121206800F09CFB20688168EC
:1015700041F0770109E0CB68D1E90121206800F052
:1015800091FB2068816841F48041816011E0CA6864
:101590004968206800F098FB5021206807E016E0B9
:1015A000CA684968206800F0A0FB6021206800F04C
:1015B00083FB84F83D50002084F83C0070BDCA686D
:1015C0004968206800F080FB40212068EFE722682E
:1015D00001461046EBE7704770B5044600680169A4
:1015E0004FF00005C943890715D4C168C94389076D
:1015F00011D4E91E016101202077206880698007ED
:10160000204602D0FFF7E7FF04E000F098F82046FC
:1016100000F096F8257720680169C943490717D477
:10162000C168C943490713D46FF004010161022066
:1016300020772068806910F4407F204602D0FFF7B1
:10164000CAFF04E000F07BF8204600F079F8257727
:1016500020680169C943090716D4C168C94309074D
:1016600012D46FF008010161042020772068C0695E
:101670008007204602D0FFF7AEFF04E000F05FF8DD
:10168000204600F05DF8257720680169C943C90646
:1016900017D4C168C943C90613D46FF010010161A2
:1016A000082020772068C06910F4407F204602D0CF
:1016B000FFF791FF04E000F042F8204600F040F808
:1016C000257720680169C943C90708D1C168C943A2
:1016D000C90704D1891E0161204600F032F8206854
:1016E0000169C943090609D4C168C943090605D47B
:1016F0006FF0800101612046FFF780FE20680169DC
:10170000C943490609D4C168C943490605D46FF0E5
:1017100040010161204600F015F820680169C943C5
:1017200089060BD4C168C943890607D46FF020012C
:1017300001612046BDE87040FFF761BE70BD704793
:10174000704770477047704770B50268044610686C
:10175000D168536910F00F0F52D003F0010501F466
:1017600090762E435FD0C20705D0CA0503D5E26B41
:1017700042F00102E263420705D5DA0703D0E26BCB
:1017800042F00202E263820705D5DA0703D0E26B7A
:1017900042F00402E263020707D501F020022A4367
:1017A00003D0E26B42F00802E263E26B002A33D01E
:1017B000800604D5880602D5204600F0BEFA2068CF
:1017C0004069E16BC0F38010090700D428B32046BC
:1017D00000F0A5FA2068416949061AD5416921F04F
:1017E00040014161606BA0B11B490165606BFFF76F
:1017F000B9F9002810D0606B016DBDE87040084752
:10180000830610D58B060ED52046BDE8704000F04B
:1018100094BA2046FFF797FF70BD2046FFF793FF6D
:101820000020E06370BD030606D50B0604D52046F4
:10183000BDE8704000F060BB4006F3D54806F1D526
:10184000D168204621F04001D160202184F8391070
:1018500000F0BEF870BD00000F1D000870B5040058
:1018600004D094F83900002510B106E0012070BDC5
:1018700084F83850204600F023F8242084F83900FA
:101880002068C16821F40051C160204600F0A0FA30
:101890002068016921F4904101612068416921F0CB
:1018A0002A0141612068C16841F40051C160E563CB
:1018B000202084F8390084F83A00002070BD000030
:1018C00010B586B0044614216846FEF7B1FC1849ED
:1018D0002068884229D117480021026842F48022FA
:1018E0000260006800F480200590124810380268F9
:1018F00042F002020260006800F0020005904FF41E
:10190000406000900220CDE90101032003900720F0
:10191000049069460848FFF749F90022114627203C
:10192000FFF78EFA2720FFF77DFA06B010BD000002
:1019300000480040403802400004024090F83A302D
:10194000202B22D1F9B1F2B190F83830012B1CD004
:1019500081628285C2850021C163222280F83A20FB
:1019600080F838100168CA6842F48072CA60016861
:101970004A6942F001024A610068C16841F02001F1
:10198000C1600020704701207047022070470000AE
:1019900010B500680B49884204D105220A490B485A
:1019A000FFF7CCFF084B00209B1F991D1A780C5C99
:1019B000662C01D10A185278401CC0B20528F6D313
:1019C0001A7010BD0048004006000020A80000204A
:1019D0007047FEE77FB500241548009401940294F7
:1019E0001249039401604FF48031C0E9011404618D
:1019F000047680F820400F49C0E90A140125C5612A
:101A0000C46080F830404561FEF76BFF08B1FEF717
:101A1000A5FE0095CDE9015469460548FEF7B8FEDC
:101A2000002801D0FEF79AFE7FBD00000020014093
:101A3000200000200100000F0D4808B5016841F0AA
:101A400080010160016801F080010091016841F0AE
:101A500001010160016801F001010091016841F09C
:101A600002010160006800F00200009008BD000063
:101A70003038024010B586B0002417480094019415
:101A80000294039404944FF080410594016042F263
:101A9000CF01C0E9011442F20F71C0E9031484615F
:101AA000FFF7F6FC08B1FEF759FE4FF480500090A6
:101AB00069460948FFF724FD08B1FEF74FFE04947C
:101AC00004A905480594FFF79BFC002801D0FEF708
:101AD00045FE06B010BD0000680000200C4810B59F
:101AE0000A4901604FF4E1314160002181600C221C
:101AF000C160C0E904128161C161FFF7AFFE002837
:101B000003D0BDE81040FEF729BE10BD00480040DC
:101B1000A8000020FEE7FEE770477047FFF728B9EE
:101B200030B593B030216846FEF782FB14210CA833
:101B3000FEF77EFB1D480025016841F080510160E1
:101B4000006800F0805011901948016841F480410C
:101B500001600068022400F4804011900120009090
:101B6000000401908001CDE9064008AA0420A821C4
:101B700082E813000B906846FFF77EFA08B172B650
:101B8000FEE70CA90F2081E831004FF4A0500F9020
:101B90004FF48050109005210CA8FFF783F900281E
:101BA00001D072B6FEE713B030BD000040380240ED
:101BB000007000400548016841F47001016003496C
:101BC0004FF00060803908607047000088ED00E049
:101BD0000148FFF701BD000068000020F0B5026871
:101BE000254C264D264E274F274B4FF0804CA042C8
:101BF00009D0604507D0A84205D0B04203D0B84212
:101C000001D0984204D122F0700E4A6842EA0E02D6
:101C1000A0421BD0604519D0A84217D0B04215D0C1
:101C2000B84213D0984211D0184DA8420ED0184D8A
:101C3000A8420BD0174DA84208D0174DA84205D096
:101C4000164DA84202D0164DA84203D122F4407589
:101C5000CA682A434D6922F080022A4302608A68DA
:101C6000C2620A688262A04201D0984201D1096929
:101C7000016301214161F0BD00000140000400400A
:101C800000080040000C00400004014000400140FA
:101C9000004401400048014000180040001C004082
:101CA0000020004010B5846842EA032224F47F44F7
:101CB0000A432243826010BD826822F070020A4308
:101CC00042F007018160704710B5036A046A24F08E
:101CD00001040462846924F0F00444EA021423F04D
:101CE0000A020A438461026210BD10B5036A23F040
:101CF000100303628369046A23F4704343EA0232E7
:101D000024F0A00343EA01118261016210BD10B505
:101D1000806B0021C185C184FFF715FD10BD0168EE
:101D2000CA6822F49072CA6001684A6922F001020E
:101D30004A61202180F83A10704710B590F83A10A7
:101D4000222901D0022010BD8168B1F5805F11D039
:101D50000169002901681FD0496801F07F03816A89
:101D60004A1C82620B70C18D491E0904090CC18591
:101D700018D02BE00269816A002A0268526805D0F7
:101D8000D2B20A80816A491C8162ECE7C2F3080280
:101D90000A80816A891CF7E74A68816A4B1C836262
:101DA0000A70E0E70168CA6822F02002CA60016890
:101DB000CA6822F48072CA6001684A6922F001028E
:101DC0004A61202180F83A10FFF7E2FD002010BDA3
:101DD0002DE9F041044600680169E26821F44051B0
:101DE000114301612169A068E269084361691143F7
:101DF00008432168CA6849F20C639A430243CA60E7
:101E000020684169A26921F4407111434161E06990
:101E1000192764253226B0F5004F354A3549206828
:101E20004FF0000806D0884201D0904236D1FFF72B
:101E3000E3F835E0884201D0904202D1FFF7DCF8A8
:101E400001E0FFF7C9F861684A18A0FB070148EBF9
:101E50000803FEF7B5F90146B0FBF5F00201B1FB4E
:101E6000F5F06FF01803584301EB800006EBC0005B
:101E7000B0FBF5F000F0F80002EB4002B1FBF5F02A
:101E8000584301EB800006EBC000B0FBF5F000F01A
:101E90000700216810448860BDE8F081FFF79CF8D6
:101EA00061688B0F8A00A0FB0701FEF789F90146E4
:101EB000B0FBF5F06FF01802504301EB800006EB29
:101EC0000010B0FBF5F000F0F002B1FBF5F002EB12
:101ED0000012B1FBF5F06FF01803584301EB8000DE
:101EE00006EB0010B0FBF5F000F00F00D1E70000AA
:101EF000001401400010014090F83910212901D050
:101F0000022070478168B1F5805F016A0BD04A1CDE
:101F10000262026809785160C18C491E0904090CEB
:101F2000C1840ED017E009880268C1F3080151602E
:101F300001690029016A02D0491C0162ECE7891C91
:101F4000FBE70168CA6822F08002CA600068C168C5
:101F500041F04001C1600020704700000148FFF7D8
:101F6000F3BB0000A8000020FEE700000FB4054B03
:101F700010B503A9044A029800F028F810BC5DF8D7
:101F800014FB0000212100081C0000200907090E95
:101F9000002804DB00F1E02080F80014704700F016
:101FA0000F0000F1E02080F8141D704702E008C81F
:101FB000121F08C1002AFAD170477047002001E0C3
:101FC00001C1121F002AFBD1704700002DE9FF4F0D
:101FD00089B09B460446002506E025280BD05A46CA
:101FE0000B999047641C6D1C20780028F5D10DB02A
:101FF0002846BDE8F08F0027B8460122474900E097
:10200000074314F8013F203B02FA03F00842F7D1DE
:1020100020782E2819D114F8010F47F004072A2838
:102020000ED06FF02F022078A0F1300109290CD8D2
:1020300008EB880102EB410100EB0108641CF2E7A8
:102040000A98641C50F8048B0A9020780028CED09F
:10205000642808D0692806D075281ED05A460B99E6
:1020600090476D1C58E00A994FF00A0901C90A917E
:10207000002802DA40422D2102E0390504D52B2147
:102080008DF82010012103E0F90704D02021F7E7A3
:102090008A4608AE0DE00021FAE70A994FF00A09D6
:1020A00001C90A91F7E74946FEF70CFA303106F804
:1020B000011D0028F7D1ADEB060000F120097807DB
:1020C00001D44FF00108C84502DDA8EB090000E08B
:1020D00000208046002706E008A85A46C05D0B99FC
:1020E00090476D1C7F1C5745F6DB04E030205A46B4
:1020F0000B9990476D1CB8F10001A8F10108F5DCBF
:1021000005E016F8010B5A460B9990476D1CB9F182
:102110000001A9F10109F4DC641C65E7092801004C
:1021200004490A685206FCD5024AC1B2121D116068
:1021300070470000004800402DED088BFEF720FEA0
:10214000FFF7EEFCFFF778FCFFF744FCFFF792FC8B
:10215000FFF7C4FC052217491748FFF7EFFB154CA2
:102160009FED168B9FED179B9FED18AB9FED19BB55
:10217000A41F00BFFEF7F4FA6088FEF77DF953EC68
:10218000182BFEF707F953EC192BFEF703F953EC64
:102190001A2BFEF7FFF853EC1B2BFEF754F8FEF753
:1021A00078F981B2A1800DA0FFF7E0FE0A20FEF7CA
:1021B000EBFCDFE706000020A800002066666666EC
:1021C00066660A40000000000000403F000000007A
:1021D00000003440000000000000494061646420B9
:1021E000312C302C2564FFFFFF00000000000000B0
:1021F00000000000010203040607080900000000B7
:102200000102030424220008000000202000000036
:10221000AC1F00084422000820000020C804000071
:10222000BC1F0008000000000000000000000000CB
:102230000100000010000000000000000024F40075
:04224000000000009A
:040000050800018965
:00000001FF
